:020000022000DC
:1070000000000420197202000172020049BE04004F
:1070100005720200077202000972020000000000FF
:107020000000000000000000000000000B720200E1
:107030000D720200000000000F72020011720200C7
:1070400035FA030035E4030045FA0300B9210400D2
:10705000D1210400137202001DF503001372020017
:107060001372020013720200A513040013720200CF
:1070700013720200137202001372020013720200F4
:1070800013720200A9A70400137202001372020017
:10709000C5E403001372020035DE0400137202001F
:1070A00013720200137202001372020013720200C4
:1070B00071040400137202000000000000000000D0
:1070C0001372020089040400A10404006912040080
:1070D000137202001372020013720200CD3E04000C
:1070E00013720200B51004001372020000000000C9
:1070F00000000000B9040400000000001372020048
:10710000000000000000000000000000000000007F
:10711000000000000000000000000000000000006F
:10712000000000000000000000000000000000005F
:10713000000000000000000000000000000000004F
:10714000000000000000000000000000000000003F
:10715000000000000000000000000000000000002F
:10716000000000000000000000000000000000001F
:10717000000000000000000000000000000000000F
:1071800000000000000000000000000000000000FF
:1071900000000000000000000000000000000000EF
:1071A00000000000000000000000000000000000DF
:1071B00000000000000000000000000000000000CF
:1071C00000000000000000000000000000000000BF
:1071D00000000000000000000000000000000000AF
:1071E000000000000000000000000000000000009F
:1071F000000000000000000000000000000000008F
:10720000FEE7FEE7FEE7FEE7FEE7FEE7FEE7FEE756
:10721000FEE7FEE700F002B8FFF7FCBF0F484FF0B3
:107220000701884385460E4880470E48016841F4AF
:1072300070010160BFF34F8FBFF36F8F00F01AB87A
:1072400009480A490A4A884207D0521A05D00378E9
:1072500001300B700131013AF9D170470000042070
:10726000615C030088ED00E088700500F8370020BD
:107270000C380020344935480A1A02D007229143BD
:107280008D46334933480A1A06D00722914381F3C9
:107290000988022282F314882F483049304A00F0CE
:1072A00041F830483049314A00F03CF83048314923
:1072B000314A00F037F831483149324A00F032F8AB
:1072C00031483249324A00F02DF832483249334AC7
:1072D00000F028F832483349334A00F023F83348A5
:1072E0003349002200F029F832483349002200F0E7
:1072F00024F832483249091A2FF056FE314A904795
:107300001F482049884205D00268043003B49047E2
:1073100003BCF7E700208646EC46002000212A4AFD
:107320009047FEE7884207D0521A05D00378013013
:107330000B700131013AF9D17047884202D00270D6
:107340000130FAE7704700000000042000E003204D
:1073500000000420000004200C7E05000C380020F2
:1073600058710020CC730200CC730200BC6F050082
:107370000C7E05000C3800200C3800209C700500A5
:107380009C7005009C7005009C7005009C700500B9
:107390009C7005009C7005009C7005000B7E05002C
:1073A00058B705005871002058710020587100200E
:1073B000ACCC0020ACCC0020B4CC0020B4CC00205D
:0C73C000B4EC0020417202001D410500E9
:1073CC0000B585B0039002910192039B1B681B686A
:1073DC00019A0299039898470346184605B05DF840
:1073EC0004FB00B583B00190019B1B685B6801989E
:1073FC0098470346184603B05DF804FB10B582B0FD
:10740C0001900091009B1C68019B1B685B690198B3
:10741C00984703461B689C4201D3072306E0019B57
:10742C001B689B680099019898470346184602B060
:10743C0010BD10B582B001900091009B1C68019B9F
:10744C001B685B690198984703461B689C4201D3F3
:10745C00072306E0019B1B68DB680099019898479D
:10746C000346184602B010BD00B585B003900B461C
:10747C0001928DF80B30039B1B681B699DF80B1058
:10748C00019A039898470346184605B05DF804FB2B
:10749C0000B583B00190019B1B685B69019898470C
:1074AC000346184603B05DF804FB000084B001905D
:1074BC000091009B9B688DF80F30009B1B78032B71
:1074CC0017D80E4B19689DF80F2013465B00134418
:1074DC009B000B44009A52781A72084B19689DF85D
:1074EC000F2013465B0013449B000B4400229A723E
:1074FC0000E000BF00BF04B0704700BF587100200F
:10750C0020BF00BF7047000000B585B003468DF862
:10751C000730594B1B789DF807209A4201D303235F
:10752C00A6E0564B19689DF8072013465B001344E0
:10753C009B000B441B68002B01D1032398E04F4B9D
:10754C0019689DF8072013465B0013449B000B44FD
:10755C005B7ADBB203F00103002B0BD1474B1968AC
:10756C009DF8072013465B0013449B000B445B7A89
:10757C00DBB27DE0414B19689DF8072013465B0098
:10758C0013449B000B445B68002B0AD13B4B1968DE
:10759C009DF8072013465B0013449B000B44384AAC
:1075AC005A60364B19689DF8072013465B0013444C
:1075BC009B000B4401229A72304B19689DF80720EE
:1075CC0013465B0013449B000B441B689DF807207B
:1075DC002C491846FFF7F4FE0390039B002B3CD17B
:1075EC000AE0264B19689DF8072013465B001344EC
:1075FC009B000B445B689847204B19689DF807204B
:10760C0013465B0013449B000B449B7ADBB2002BAC
:10761C00E7D11A4B19689DF8072013465B001344F9
:10762C009B000B441B7A002B17D1144B19689DF847
:10763C00072013465B0013449B000B445B7AD9B2C2
:10764C000E4B18689DF8072013465B0013449B00F3
:10765C00034421F00102D2B25A72084B19689DF80A
:10766C00072013465B0013449B000B445B7ADBB290
:10767C00184605B05DF804FB5C71002058710020C1
:10768C000D750200B974020000B585B003468DF883
:10769C000730504B1B789DF807209A4201D30323E7
:1076AC0093E04D4B19689DF8072013465B0013447B
:1076BC009B000B441B68002B01D1032385E0464B38
:1076CC0019689DF8072013465B0013449B000B447C
:1076DC005B7ADBB203F00103002B0BD03E4B196835
:1076EC009DF8072013465B0013449B000B445B7A08
:1076FC00DBB26AE0384B19689DF8072013465B0033
:10770C0013449B000B441B68002200211846FFF712
:10771C00ABFE314B19689DF8072013465B001344F0
:10772C009B000B441B681846FFF75BFE0390039B02
:10773C00112BEED0039B002B18D10AE0264B1968B5
:10774C009DF8072013465B0013449B000B445B68B9
:10775C009847214B19689DF8072013465B0013448A
:10776C009B000B449B7ADBB2002BE7D11A4B1968B8
:10777C009DF8072013465B0013449B000B441B7AB7
:10778C00002B17D1144B19689DF8072013465B008A
:10779C0013449B000B445B7AD9B20F4B18689DF8CD
:1077AC00072013465B0013449B00034441F0010285
:1077BC00D2B25A72084B19689DF8072013465B0029
:1077CC0013449B000B445B7ADBB2184605B05DF8A2
:1077DC0004FB00BF5C7100205871002082B003468E
:1077EC008DF807300A4B1B789DF807209A4201D37D
:1077FC0001230AE0074B19689DF8072013465B002C
:10780C0013449B000B445B7ADBB2184602B0704702
:10781C005C7100205871002000B589B00291019272
:10782C00009303468DF80F303B4B1B789DF80F20CF
:10783C009A4202D2009B002B01D1042368E0374B03
:10784C0019689DF80F2013465B0013449B000B44F2
:10785C001B68002B0ED0314B19689DF80F20134676
:10786C005B0013449B000B445B7ADBB203F0010317
:10787C00002B01D003234BE0019B0493009B059349
:10788C00029B0693254B19689DF80F2013465B004D
:10789C0013449B000B4401229A72204B19689DF8EB
:1078AC000F2013465B0013449B000B441B6804AA77
:1078BC0011461846FFF7A2FD0790079B002B26D117
:1078CC000AE0164B19689DF80F2013465B00134411
:1078DC009B000B445B689847104B19689DF80F2070
:1078EC0013465B0013449B000B449B7ADBB2002BCA
:1078FC00E7D10A4B19689DF80F2013465B0013441F
:10790C009B000B441B7A002B01D1002300E00123C8
:10791C00184609B05DF804FB5C710020587100201A
:10792C0000B589B002910192009303468DF80F3097
:10793C00444B1B789DF80F209A4202D2009B002BDF
:10794C0001D1042379E0404B19689DF80F201346B0
:10795C005B0013449B000B441B68002B0ED03A4B6E
:10796C0019689DF80F2013465B0013449B000B44D1
:10797C005B7ADBB203F00103002B01D003235CE044
:10798C00314B19689DF80F2013465B0013449B0084
:10799C000B445B7ADBB203F00403002B01D002230F
:1079AC004BE0019B0493009B0593029B0693264B93
:1079BC0019689DF80F2013465B0013449B000B4481
:1079CC0001229A72204B19689DF80F2013465B0018
:1079DC0013449B000B441B6804AA11461846FFF77E
:1079EC0028FD0790079B002B26D10AE0164B19683F
:1079FC009DF80F2013465B0013449B000B445B68FF
:107A0C009847114B19689DF80F2013465B001344DF
:107A1C009B000B449B7ADBB2002BE7D10A4B196815
:107A2C009DF80F2013465B0013449B000B441B7AFC
:107A3C00002B01D1002300E00123184609B05DF8AA
:107A4C0004FB00BF5C7100205871002000B587B0AA
:107A5C00034600928DF807300B468DF80630414BEB
:107A6C001B789DF807209A4201D3042375E09DF8FA
:107A7C000630022B4BD0022B6DDC002B02D0012BDD
:107A8C0022D068E001238DF80B30374B19689DF834
:107A9C00072013465B0013449B000B441B680DF13D
:107AAC000B0200211846FFF7DFFC0390039B002B11
:107ABC0002D0039B112B04D19DF80B30002BE4D189
:107ACC0000E000BF002348E0274B19689DF8072011
:107ADC0013465B0013449B000B441B68002B01D125
:107AEC0003233AE0009B04931F4B19689DF8072071
:107AFC0013465B0013449B000B441B681846FFF7AE
:107B0C00C7FC03461A68049B1A60002325E0164B39
:107B1C0019689DF8072013465B0013449B000B4427
:107B2C001B68002B01D1032317E0009B05930E4B20
:107B3C0019689DF8072013465B0013449B000B4407
:107B4C001B681846FFF7A4FC03465B689AB2059BBA
:107B5C001A80002301E000BF0123184607B05DF82E
:107B6C0004FB00BF5C7100205871002082B00190B2
:107B7C000091054A019B1360009BDAB2034B1A700B
:107B8C0000BF02B0704700BF587100205C7100202C
:107B9C0084B00190019B01331B78ADF80E30BDF819
:107BAC000E301B021AB2019B1B781BB213431BB283
:107BBC00ADF80E30BDF80E30184604B0704784B0E6
:107BCC000190019B03331B780393039B1B02019AC7
:107BDC000232127813430393039B1B02019A013266
:107BEC00127813430393039B1B02019A12781343DD
:107BFC000393039B184604B0704782B001900B4668
:107C0C00ADF80230019B5A1C0192BDF80220D2B291
:107C1C001A70BDF802301B0AADF80230019B5A1CD9
:107C2C000192BDF80220D2B21A7000BF02B07047A8
:107C3C0082B001900091019B5A1C0192009AD2B221
:107C4C001A70009B1B0A0093019B5A1C0192009A0C
:107C5C00D2B21A70009B1B0A0093019B5A1C019212
:107C6C00009AD2B21A70009B1B0A0093019B5A1CFB
:107C7C000192009AD2B21A7000BF02B0704786B05F
:107C8C00039002910192039B0593029B0493019B29
:107C9C00002B0DD0049A531C0493059B591C059181
:107CAC0012781A70019B013B0193019B002BF1D1BF
:107CBC0000BF06B0704786B0039002910192039BFF
:107CCC000593059B5A1C0592029AD2B21A70019B1D
:107CDC00013B0193019B002BF3D100BF00BF06B009
:107CEC00704788B0039002910192039B0793029B0B
:107CFC00069300230593079B5A1C07921B78194681
:107D0C00069B5A1C06921B78CB1A0593019B013BD0
:107D1C000193019B002B02D0059B002BEBD0059B04
:107D2C00184608B0704782B00190009102E0019BA8
:107D3C0001330193019B1B78002B05D0019B1B7811
:107D4C001A46009B9342F2D1019B1B78184602B055
:107D5C00704700B587B0019000238DF80F30019B60
:107D6C00DB78002B35D0019BDB6A0593019B58789F
:107D7C00019B03F130010123059AFFF7D1FD034666
:107D8C00002B03D001238DF80F3022E0019B002241
:107D9C00DA70019B1B6A059AD21A019B9B699A4265
:107DAC0017D2019B9B78049310E0019B9B69059A69
:107DBC0013440593019B5878019B03F13001012377
:107DCC00059AFFF7ADFD049B013B0493049B012B2B
:107DDC00EBD89DF80F30184607B05DF804FB00B5E2
:107DEC0085B00190009100238DF80F30019BDB6A68
:107DFC00009A9A421ED00198FFF7ABFF03468DF80C
:107E0C000F309DF80F30002B14D1019B5878019B3B
:107E1C0003F130010123009AFFF7FEFC0346002B0F
:107E2C0005D04FF0FF33009301238DF80F30019BE9
:107E3C00009ADA629DF80F30184605B05DF804FB25
:107E4C0000B585B001900198FFF783FF03468DF8CC
:107E5C000F309DF80F30002B59D1019B1B78032B51
:107E6C0048D1019B1B79012B44D1019B30334FF43A
:107E7C00007200211846FFF71EFF019B303303F5FB
:107E8C00FF734AF655211846FFF7B7FE019B3033B6
:107E9C0022491846FFF7CCFE019B303303F5F273F1
:107EAC001F491846FFF7C4FE019B303303F5F472EB
:107EBC00019B1B6919461046FFF7BAFE019B303334
:107ECC0003F5F672019BDB6819461046FFF7B0FE0E
:107EDC00019BDB695A1C019BDA62019B5878019B60
:107EEC0003F13001019BDA6A0123FFF719FD019BB5
:107EFC0000221A71019B5B78002200211846FFF7C3
:107F0C00A5FD0346002B02D001238DF80F309DF800
:107F1C000F30184605B05DF804FB00BF52526141AA
:107F2C007272416182B001900091009B023B009300
:107F3C00019B5B69023B009A9A4201D3002308E043
:107F4C00019B5B891A46009B03FB02F2019B9B6A17
:107F5C001344184602B0704700B587B001900091E9
:107F6C00019B1B680493009B012B04D9049B5B6948
:107F7C00009A9A4202D3012305938FE04FF0FF330E
:107F8C000593049B1B78032B62D0032B7CDC012B09
:107F9C0002D0022B42D077E0009B0393039B5B083B
:107FAC00039A13440393049B1A6A039B5B0A1344BE
:107FBC0019460498FFF713FF0346002B67D1039B68
:107FCC005A1C0392C3F30803049A134493F83030F9
:107FDC000293049B1A6A039B5B0A13441946049888
:107FEC00FFF7FDFE0346002B53D1039BC3F308039D
:107FFC00049A134493F830301B021A46029B134325
:10800C000293009B03F00103002B02D0029B1B097F
:10801C0002E0029BC3F30B0305933FE0049B1A6A37
:10802C00009B1B0A134419460498FFF7D8FE03461D
:10803C00002B30D1049B03F13002009B5B0003F456
:10804C00FF7313441846FFF7A3FD0346059325E081
:10805C00049B1A6A009BDB09134419460498FFF72A
:10806C00BEFE0346002B18D1049B03F13002009B8B
:10807C009B0003F4FE7313441846FFF7A0FD034660
:10808C0023F07043059309E00123059306E000BF3C
:10809C0004E000BF02E000BF00E000BF059B1846F3
:1080AC0007B05DF804FB10B588B003900291019203
:1080BC0002238DF81F30029B012B40F2DA80039BC8
:1080CC005B69029A9A4280F0D480039B1B78032B45
:1080DC0000F09C80032B00F3D580012B02D0022BE7
:1080EC0072D0CFE0029B0693069B5B08069A134462
:1080FC000693039B1A6A069B5B0A13441946039862
:10810C00FFF76DFE03468DF81F309DF81F30002BD6
:10811C0040F0B180039B03F13002069B591C069181
:10812C00C3F3080313440593029B03F00103002BD4
:10813C000DD0059B1B785BB203F00F035AB2019B69
:10814C00DBB21B015BB213435BB2DBB201E0019B00
:10815C00DBB2059A1370039B0122DA70039B1A6A37
:10816C00069B5B0A134419460398FFF738FE034637
:10817C008DF81F309DF81F30002B7ED1039B03F12F
:10818C003002069BC3F3080313440593029B03F0D0
:10819C000103002B03D0019B1B09DBB20EE0059BF6
:1081AC001B785BB223F00F035AB2019B1B0A5BB224
:1081BC0003F00F035BB213435BB2DBB2059A13708F
:1081CC00039B0122DA705DE0039B1A6A029B1B0A77
:1081DC00134419460398FFF702FE03468DF81F302F
:1081EC009DF81F30002B4AD1039B03F13002029BF8
:1081FC005B0003F4FF731344019A92B211461846C4
:10820C00FFF7FBFC039B0122DA703BE0039B1A6A2D
:10821C00029BDB09134419460398FFF7E0FD034664
:10822C008DF81F309DF81F30002B2AD1019B23F0B5
:10823C007044039B03F13002029B9B0003F4FE731A
:10824C0013441846FFF7BBFC034603F0704323436B
:10825C000193039B03F13002029B9B0003F4FE731A
:10826C00134401991846FFF7E3FC039B0122DA70D3
:10827C0008E000BF06E000BF04E000BF02E000BF62
:10828C0000E000BF9DF81F30184608B010BD00B5C7
:10829C0089B003900291019200238DF81F30039B4B
:1082AC001B680693029B012B04D9069B5B69029AFF
:1082BC009A4201D3022351E0019B002B0FD04FF0C7
:1082CC00FF3201990698FFF7EEFE03468DF81F303A
:1082DC009DF81F30002B02D09DF81F303EE0029914
:1082EC000398FFF739FE0590059B002B34D0059BB6
:1082FC00012B01D1022331E0059BB3F1FF3F01D1EA
:10830C0001232BE0002202990698FFF7CCFE0346CE
:10831C008DF81F309DF81F30002B02D09DF81F30B8
:10832C001CE0069B1A69069B5B69023B9A420BD2C6
:10833C00069B1B695A1C069B1A61069B1B7943F012
:10834C000103DAB2069B1A71059B0293069B5B69CB
:10835C00029A9A42C3D300E000BF0023184609B02A
:10836C005DF804FB00B589B001900091019B1B687E
:10837C000493009B002B0DD1049BDB680693069B9A
:10838C00002B04D0049B5B69069A9A421BD30123F1
:10839C00069318E000990198FFF7DEFD0390039B0C
:1083AC00012B01D8012375E0039BB3F1FF3F01D1F1
:1083BC00039B6FE0049B5B69039A9A4201D2039B77
:1083CC0068E0009B0693069B0793079B013307937A
:1083DC00049B5B69079A9A4207D302230793079A77
:1083EC00069B9A4201D9002354E007990198FFF7A4
:1083FC00B3FD0390039B002B0ED0039B012B03D0EA
:10840C00039BB3F1FF3F01D1039B43E0079A069B0B
:10841C009A42DAD100233DE000BF4FF0FF320799BA
:10842C000498FFF740FE03468DF817309DF817307F
:10843C00002B0AD1009B002B07D0079A00990498B7
:10844C00FFF731FE03468DF817309DF81730002BDF
:10845C0016D1049B079ADA60049B1A69049B5B692A
:10846C00023B9A4204D2049B1B695A1E049B1A615C
:10847C00049B1B7943F00103DAB2049B1A7108E0E8
:10848C009DF81730012B02D14FF0FF3300E0012390
:10849C000793079B184609B05DF804FB00B587B03D
:1084AC0001900091019B1B680493009BB3F5001F86
:1084BC0004D2009B03F01F03002B01D0022363E0C6
:1084CC00019B009A1A61019B9B680593059B002BED
:1084DC0006D1049B1B78022B02D9049B5B6A059383
:1084EC00059B002B0CD1009B5B09049A12899342CB
:1084FC0001D3022348E0049B5A6A019B9A6129E04C
:10850C00049B5B895B02039319E0019B0599184658
:10851C00FFF722FD0590059BB3F1FF3F01D101232D
:10852C0032E0059B012B04D9049B5B69059A9A42A6
:10853C0001D3022328E0009A039BD31A0093009ADC
:10854C00039B9A42E1D205990498FFF7EBFC024693
:10855C00019B9A61019B059A5A61019B9B69002BB7
:10856C0001D1022310E0019B9A69009B5B0A1A441B
:10857C00019B9A61049B03F13002009BC3F3080337
:10858C001A44019BDA610023184607B05DF804FB1E
:10859C0000B587B001900091019B1B680393019B70
:1085AC001B6920330293019B9B69002B03D0029B18
:1085BC00B3F5001F01D30423AAE0029BC3F3080305
:1085CC00002B40F09880019B9B695A1C019B9A617F
:1085DC00019B5B69002B0BD1029B5B09039A1289EF
:1085EC009342C0F08880019B00229A6104238FE0A3
:1085FC00029B5B0A039A5289013A1340002B7AD1F1
:10860C00019A019B5B6919461046FFF7A5FC059082
:10861C00059B012B01D802237AE0059BB3F1FF3FA8
:10862C0001D1012374E0039B5B69059A9A4258D3EC
:10863C00009B002B04D1019B00229A61042367E06C
:10864C00019A019B5B6919461046FFF78BFE05905A
:10865C00059B002B01D107235AE0059B012B01D16F
:10866C00022355E0059BB3F1FF3F01D101234FE0FD
:10867C000398FFF76EFB0346002B01D0012347E064
:10868C00039B30334FF4007200211846FFF713FBA5
:10869C000023049305990398FFF744FC0246039BBF
:1086AC00DA6212E0039B0122DA700398FFF751FBA8
:1086BC000346002B01D001232AE0049B01330493D1
:1086CC00039BDB6A5A1C039BDA62039B5B891A4689
:1086DC00049B9342E6D3039BDA6A049BD21A039B56
:1086EC00DA62019B059A5A6105990398FFF71AFC07
:1086FC000246019B9A61019B029A1A61039B03F14A
:10870C003002029BC3F308031A44019BDA61002375
:10871C00184607B05DF804FB00B587B001900091D6
:10872C00019B1B68039300210198FFF7B7FE0346DA
:10873C008DF817309DF81730002B2FD100230493A0
:10874C00019B9B6919460398FFF749FB03468DF87B
:10875C0017309DF81730002B1FD1019BDB691B785C
:10876C00E52B04D0019BDB691B78002B07D1049B04
:10877C0001330493049A009B9A4202D10EE0002329
:10878C00049301210198FFF703FF03468DF817307E
:10879C009DF81730002BD3D000E000BF9DF81730A8
:1087AC00042B02D107238DF817309DF8173018468B
:1087BC0007B05DF804FB00B585B001900091009BFB
:1087CC001A331846FFF7E4F903460393019B1B7811
:1087DC00032B09D1009B14331846FFF7D9F9034634
:1087EC001B04039A13430393039B184605B05DF8CF
:1087FC0004FB00B585B0039002910192029B1A33E1
:10880C00019A92B211461846FFF7F7F9039B1B78B1
:10881C00032B09D1029B03F11402019B1B0C9BB28D
:10882C0019461046FFF7E9F900BF05B05DF804FBE7
:10883C0000B587B00190009104238DF81730019B8F
:10884C001B68049349E0019B9B6919460498FFF748
:10885C00C6FA03468DF817309DF81730002B41D11E
:10886C00019BDB691B788DF80F309DF80F30002BC6
:10887C0003D104238DF8173039E0019BDB690B33EE
:10888C001B7803F03F038DF80E30019B9DF80E20F2
:10889C009A719DF80F30E52B14D09DF80F302E2BCC
:1088AC0010D09DF80E300F2B0CD09DF80E3023F00D
:1088BC002003082B0CBF01230023DBB21A46009BBC
:1088CC00934211D000210198FFF762FE03468DF808
:1088DC0017309DF81730002B08D1019B9B69002B9A
:1088EC00B1D104E000BF02E000BF00E000BF9DF882
:1088FC001730002B02D0019B00229A619DF8173093
:10890C00184607B05DF804FB00B587B00190019BD9
:10891C001B68049300210198FFF7C0FD03468DF8F6
:10892C0017309DF81730002B02D09DF8173046E019
:10893C00019B9B6919460498FFF751FA03468DF881
:10894C0017309DF81730002B34D1019BDB691B7855
:10895C008DF80F309DF80F30002B03D104238DF8C8
:10896C0017302AE0019BDB690B331B7803F03F03C4
:10897C00DAB2019B9A71019BDB690B331B7803F014
:10898C000803002B0AD1019BD869019B20330B22D1
:10899C001946FFF7A6F90346002B0DD000210198CC
:1089AC00FFF7F6FD03468DF817309DF81730002BB6
:1089BC00BED002E000BF00E000BF9DF817301846A3
:1089CC0007B05DF804FB00B585B00190019B1B68F6
:1089DC00029301210198FFF79FFE03468DF80F309B
:1089EC009DF80F30002B1ED1019B9B6919460298F4
:1089FC00FFF7F5F903468DF80F309DF80F30002B7B
:108A0C0011D1019BDB69202200211846FFF753F995
:108A1C00019BD869019B20330B221946FFF72FF9D4
:108A2C00029B0122DA709DF80F30184605B05DF8F4
:108A3C0004FB00B587B001900091009B00225A7294
:108A4C00019B9B69002B53D000230493049B05933B
:108A5C0026E0019BDA69059B591C059113441B7890
:108A6C008DF80F309DF80F30202B00D118E09DF8B9
:108A7C000F30052B02D1E5238DF80F30059B092B08
:108A8C0006D1049B5A1C0492009A13442E225A724B
:108A9C00049B5A1C0492009A13449DF80F205A729E
:108AAC00059B0A2BD5D9009A049B13440933002249
:108ABC001A70019BDB69DA7A009B1A72019BDB69E5
:108ACC001C331846FFF77BF80246009B1A60019B8B
:108ADC00DB6916331846FFF772F80290029B9AB2C4
:108AEC00009BDA80029B1B0C9AB2009B9A8000E0E0
:108AFC0000BF07B05DF804FB00B58BB0019000918E
:108B0C00009B1B680593019B203304930B222021AF
:108B1C000498FFF7D0F800230693069B07930823CD
:108B2C000893079B5A1C0792059A13441B788DF8DF
:108B3C0027309DF82730202B40F290809DF827306D
:108B4C002F2B07D09DF827305C2B10D102E0079B10
:108B5C0001330793059A079B13441B782F2BF6D0F0
:108B6C00059A079B13441B785C2BF0D077E09DF89B
:108B7C0027302E2B03D0069A089B9A420DD3089BC4
:108B8C000B2B03D09DF827302E2B01D0062382E02F
:108B9C00082306930B2308935FE09DF82730802B66
:108BAC0003D99DF827309F2B07D99DF82730DF2B51
:108BBC0033D99DF82730FC2B2FD8079B5A1C0792D2
:108BCC00059A13441B788DF80F309DF80F303F2B0E
:108BDC0003D99DF80F307E2B07D99DF90F30002B50
:108BEC0008DA9DF80F30FC2B04D8089B013B069A41
:108BFC009A4201D306234EE0069B5A1C0692049A15
:108C0C0013449DF827201A70069B5A1C0692049A4E
:108C1C0013449DF80F201A701FE09DF82730194659
:108C2C001F48FFF780F80346002B01D0062332E0E3
:108C3C009DF82730602B08D99DF827307A2B04D863
:108C4C009DF82730203B8DF82730069B5A1C069246
:108C5C00049A13449DF827201A7062E700BF059A06
:108C6C00079B1A44009B1A60069B002B01D106231C
:108C7C0011E0049B1B78E52B02D1049B05221A7092
:108C8C009DF82730202B01D8042200E00022049B01
:108C9C000B331A70002318460BB05DF804FB00BFB1
:108CAC009C70050000B587B001900091019B049366
:108CBC00049B1B68039302E0009B01330093009B11
:108CCC001B782F2BF8D0009B1B785C2BF4D0049BCB
:108CDC0000229A60009B1B781F2B0BD8019B8022D3
:108CEC0083F82B2000210198FFF7D8FB03468DF861
:108CFC0017304DE06B4619460198FFF7FDFE034611
:108D0C008DF817309DF81730002B3CD10198FFF7E8
:108D1C00FBFD03468DF81730019B93F82B308DF833
:108D2C000B309DF81730002B0DD09DF81730042B0D
:108D3C002BD19DF80B3003F00403002B25D1052318
:108D4C008DF8173021E09DF80B3003F00403002B55
:108D5C001DD1049B9B7903F01003002B03D1052339
:108D6C008DF8173014E0039B03F13002019B1B6953
:108D7C00C3F30803134419460398FFF71CFD02467E
:108D8C00049B9A60B6E700BF02E000BF00E000BFA2
:108D9C009DF81730184607B05DF804FB86B00190BB
:108DAC004FF0FF330493019B1B68002B31D0019BC8
:108DBC001B68059302E0059B01330593059B1B780B
:108DCC00202B03D9059B1B783A2BF4D1059B1B78E0
:108DDC003A2B1CD1019B1B680393039B5A1C0392D7
:108DEC001B78303B0293029B092B0ED8039A059BF0
:108DFC009A420AD1029B002B07D1029B0493059B3C
:108E0C0001330593019B059A1A60049B02E0002331
:108E1C000493049B184606B07047000000B583B05D
:108E2C0001900091019B0022DA70019B4FF0FF3200
:108E3C00DA6200990198FEF7D2FF0346002B01D0AD
:108E4C00042338E0019B303303F5FF731846FEF71B
:108E5C009FFE03461A464AF655239A4201D0032335
:108E6C0029E0019B93F83030E92B09D0019B93F852
:108E7C003030EB2B1ED1019B93F83230902B19D153
:108E8C00019B303336331846FEF799FE034623F028
:108E9C007F430B4A934201D100230CE0019B3033FA
:108EAC0052331846FEF78BFE0346064A934201D115
:108EBC00002300E00223184603B05DF804FB00BF5A
:108ECC00464154004641543300B597B0039002918B
:108EDC0013468DF80730029B00221A600398FFF7A7
:108EEC005DFF0F900F9B002B01DA0B2331E2A44A9C
:108EFC000F9B52F823300E930E9B002B01D10C23A9
:108F0C0027E2029B0E9A1A609DF8073023F00103AA
:108F1C008DF807300E9B1B78002B1BD00E9B5B78BB
:108F2C001846FEF75BFC03468DF837309DF837305A
:108F3C0003F00103002B0DD19DF80730002B07D057
:108F4C009DF8373003F00403002B01D00A2300E214
:108F5C000023FEE10E9B00221A700F9BDAB20E9BCF
:108F6C005A700E9B5B781846FEF7CEFA03468DF8C6
:108F7C0037309DF8373003F00103002B01D0032369
:108F8C00E7E19DF80730002B07D09DF8373003F050
:108F9C000403002B01D00A23DBE100231493149962
:108FAC000E98FFF73BFF03468DF857309DF857306E
:108FBC00022B49D1002310931EE00E9B03F13002CB
:108FCC00109B1B0103F5DF7313440C930C9B0433B0
:108FDC001B78002B06D00C9B08331846FEF7EFFDD0
:108FEC00024600E00022109B9B0058336B4443F870
:108FFC00442C109B01331093109B032BDDD90023C1
:10900C001093109B002B02D0109B013B1093109BD4
:10901C009B0058336B4453F8443C1493149B002B23
:10902C0005D014990E98FFF7F9FE034600E00323D0
:10903C008DF857309DF85730012B05D9109B013313
:10904C001093109B032BE2D99DF85730042B01D1C0
:10905C0001237EE19DF85730012B01D90D2378E1D6
:10906C000E9B30330B331846FEF792FD0346B3F5D7
:10907C00007F01D00D236CE10E9B30331633184664
:10908C00FEF786FD03461393139B002B06D10E9B14
:10909C00303324331846FEF792FD13900E9B139A2F
:1090AC009A610E9B93F840200E9B9A700E9B9B78B6
:1090BC00012B05D00E9B9B78022B01D00D2348E190
:1090CC000E9B9B781A46139B02FB03F313930E9B88
:1090DC0093F83D309AB20E9B5A810E9B5B89002B04
:1090EC0008D00E9B5B891A460E9B5B89013B134093
:1090FC00002B01D00D232CE10E9B3033113318467D
:10910C00FEF746FD03461A460E9B1A810E9B1B89E1
:10911C0003F00F039BB2002B01D00D2319E10E9B22
:10912C00303313331846FEF733FD03461293129B6C
:10913C00002B06D10E9B303320331846FEF73FFD33
:10914C0012900E9B30330E331846FEF721FD03466A
:10915C00ADF82E30BDF82E30002B01D10D23F8E0E8
:10916C00BDF82E20139B13440E9A1289120992B249
:10917C0013440A93129A0A9B9A4203D20D23E8E0F5
:10918C0060710020129A0A9BD31A0E9A5289B3FB73
:10919C00F2F30993099B002B01D10D23D9E0032392
:1091AC008DF85730099B4FF6F572934202D8022383
:1091BC008DF85730099B40F6F572934202D8012383
:1091CC008DF85730099B9A1C0E9B5A610E9B149A72
:1091DC00DA61BDF82E20149B1A440E9B1A62149A65
:1091EC000A9B1A440E9B9A629DF85730032B1ED192
:1091FC000E9B30332A331846FEF7CAFC0346002B6D
:10920C0001D00D23A5E00E9B1B89002B01D00D2353
:10921C009FE00E9B30332C331846FEF7D0FC0246F1
:10922C000E9B5A620E9B5B699B0011931FE00E9B79
:10923C001B89002B01D10D238BE00E9B1A6A139B0B
:10924C001A440E9B5A629DF85730022B03D10E9B89
:10925C005B695B000AE00E9B5A6913465B00134482
:10926C005A080E9B5B6903F00103134411930E9B88
:10927C009A69119B03F2FF135B0A9A4201D20D23E8
:10928C0067E00E9B4FF0FF321A610E9B1A690E9B22
:10929C00DA600E9B80221A719DF85730032B49D14E
:1092AC000E9B303330331846FEF772FC0346012B0D
:1092BC0040D1149B013319460E98FEF790FD0346DE
:1092CC00002B37D10E9B00221A710E9B303303F505
:1092DC00FF731846FEF75CFC03461A464AF6552304
:1092EC009A4227D10E9B30331846FEF768FC034692
:1092FC001A4A93421ED10E9B303303F5F273184673
:10930C00FEF75DFC0346164A934213D10E9B303395
:10931C0003F5F4731846FEF752FC02460E9B1A61D5
:10932C000E9B303303F5F6731846FEF748FC0246E5
:10933C000E9BDA600E9B9DF857201A70094B1B8808
:10934C0001339AB2074B1A80064B1A880E9BDA80AF
:10935C000023184617B05DF804FB00BF5252614160
:10936C00727241616471002000B585B0019000916A
:10937C00019B002B1AD0019B1B68002B16D0019B64
:10938C001B681B78002B11D0019B1B68DA88019B92
:10939C009B889A420AD1019B1B685B781846FEF7A2
:1093AC001DFA034603F00103002B06D0009B00229C
:1093BC001A6009238DF80F3006E0019B1A68009B98
:1093CC001A6000238DF80F309DF80F30184605B049
:1093DC005DF804FB00B589B00390029113468DF83B
:1093EC000730029B049304AB1846FFF7D7FC079099
:1093FC00079B002B01DA0B2329E0174A079B52F835
:10940C0023300693069B002B02D0069B00221A7079
:10941C00039B002B02D0039B00221A70039A0E4967
:10942C00079B41F82320039B002B03D09DF80730AA
:10943C00012B01D000230AE003A902AB002218463D
:10944C00FFF742FD03468DF817309DF8173018468C
:10945C0009B05DF804FB00BF6071002000B599B045
:10946C000390029113468DF80730039B002B01D11A
:10947C00092382E19DF8073003F03F038DF8073094
:10948C009DF8072005A902AB1846FFF71DFD034602
:10949C008DF85F309DF85F30002B40F06581059BA7
:1094AC000693029A06AB11461846FFF7FBFB0346E0
:1094BC008DF85F309DF85F30002B07D19DF843305D
:1094CC005BB2002B02DA06238DF85F309DF8073073
:1094DC0003F01C03002B7AD09DF85F30002B11D0C9
:1094EC009DF85F30042B06D106AB1846FFF76BFADC
:1094FC0003468DF85F309DF8073043F008038DF874
:10950C00073012E09DF81E3003F01103002B03D03E
:10951C0007238DF85F3008E09DF8073003F0040353
:10952C00002B02D008238DF85F309DF85F30002BA4
:10953C006AD19DF8073003F00803002B64D0914BDF
:10954C0014930D9B0E3314991846FEF771FB0D9B6B
:10955C00163314991846FEF76BFB0D9B0B33202228
:10956C001A70059B0D9A11461846FFF724F91390B3
:10957C00059B0D9900221846FFF73BF90D9B1C33F8
:10958C0000211846FEF754FB059B0122DA70139B51
:10959C00002B39D0059BDB6A149306AB0022139980
:1095AC001846FEF774FE03468DF85F309DF85F3069
:1095BC00002B29D1059B14991846FEF710FC034685
:1095CC008DF85F30059B139A013ADA601CE09DF828
:1095DC005F30002B18D19DF81E3003F01003002BC8
:1095EC0003D004238DF85F300EE09DF8073003F0B4
:1095FC000203002B08D09DF81E3003F00103002B52
:10960C0002D007238DF85F309DF85F30002B12D10C
:10961C009DF8073003F00803002B05D09DF80730A8
:10962C0043F040038DF80730059BDA6A039B1A62FE
:10963C000D9A039B5A629DF85F30002B40F094808A
:10964C00059B0D9A11461846FFF7B5F80246039B89
:10965C009A600D9B1C331846FEF7B1FA0246039B29
:10966C00DA60059A039B1A60059BDA88039B9A8043
:10967C00039B9DF807201A74039B00225A74039BCA
:10968C000022DA61039B00225A61039B28334FF4BA
:10969C00007200211846FEF70EFB9DF8073003F010
:1096AC002003002B60D0039BDB68002B5CD0039B5A
:1096BC00DA68039B5A61059B5B895B021293039BDF
:1096CC009B681693039BDB68159316E0039B169916
:1096DC001846FEF741FC1690169B012B02D802236C
:1096EC008DF85F30169BB3F1FF3F02D101238DF84B
:1096FC005F30159A129BD31A15939DF85F30002B8F
:10970C0003D1159A129B9A42E0D8039B169A9A6140
:10971C009DF85F30002B27D1159BC3F30803002B5A
:10972C0022D0059B16991846FEF7FCFB1190119B55
:10973C00002B03D102238DF85F3015E0159B5A0ADC
:10974C00119B1A44039BDA61059B5878039B03F128
:10975C002801039BDA690123FEF75EF80346002B10
:10976C0002D001238DF85F309DF85F30002B02D0C2
:10977C00039B00221A609DF85F30184619B05DF803
:10978C0004FB00BF0000214800B58DB0039002918E
:10979C0001920093029B0793009B00221A60039B8B
:1097AC0004AA11461846FFF7DFFD03468DF82F304B
:1097BC009DF82F30002B07D1039B5B7C8DF82F304D
:1097CC009DF82F30002B02D09DF82F303FE1039BEA
:1097DC001B7C03F00203002B01D1072337E1039B11
:1097EC005A69019B1A44039B5B699A4280F0218160
:1097FC00039B5B69DB4301931BE1039B5B69C3F335
:10980C000803002B40F0D780039B5B695B0A049A2A
:10981C005289013A13400693069B002B37D1039BC8
:10982C005B69002B0CD1039B9B680A930A9B002B52
:10983C000ED1039B00211846FEF794FD0A9007E019
:10984C00039A039B9B6919461046FEF78BFD0A9001
:10985C000A9B002B00F0F2800A9B012B04D1039B86
:10986C0002225A740223F2E00A9BB3F1FF3F04D1A7
:10987C00039B01225A740123E9E0039B0A9A9A6123
:10988C00039B9B68002B02D1039B0A9A9A60039B53
:10989C001B7C5BB2002B18DA049B5878039B03F1FA
:1098AC002801039BDA690123FEF73AF80346002BE3
:1098BC0004D0039B01225A740123C8E0039B1B7C38
:1098CC0003F07F03DAB2039B1A74049A039B9B691F
:1098DC0019461046FEF726FB0590059B002B04D17C
:1098EC00039B02225A740223B1E0059A069B13448F
:1098FC000593019B5B0A0893089B002B3CD0069AAE
:10990C00089B1344049A5289934205D9049B5B89A2
:10991C001A46069BD31A0893049B5878089B059A01
:10992C000799FDF7FDFF0346002B04D0039B012292
:10993C005A7401238BE0039BDA69059BD31A089AAE
:10994C009A4215D9039B03F12800039BDA69059B06
:10995C00D31A5B02079A13444FF400721946FEF7B0
:10996C008EF9039B1B7C03F07F03DAB2039B1A7402
:10997C00089B5B0209933FE0039BDB69059A9A42C3
:10998C0016D0039B5A69039BDB689A4210D2049B46
:10999C005878039B03F128010123059AFDF73CFF3E
:1099AC000346002B04D0039B01225A7401234EE082
:1099BC00039B059ADA61039B5B69C3F30803C3F548
:1099CC0000730993099A019B9A4201D9019B09934F
:1099DC00039B03F12802039B5B69C3F30803134445
:1099EC00099A07991846FEF74AF9039B1B7C63F00A
:1099FC007F03DAB2039B1A74079A099B13440793EB
:109A0C00039B5A69099B1A44039B5A61039BDA68AE
:109A1C00039B5B699A4238BF1A46039BDA60009B32
:109A2C001A68099B1A44009B1A60019A099BD31A65
:109A3C000193019B002B7FF4E0AE00E000BF039B81
:109A4C001B7C43F04003DAB2039B1A7400231846C4
:109A5C000DB05DF804FB000000B587B00190019BD0
:109A6C0002AA11461846FFF77FFC03468DF8173003
:109A7C009DF81730002B6AD1019B1B7C03F040032F
:109A8C00002B64D0019B1B7C5BB2002B15DA029B74
:109A9C005878019B03F12801019BDA690123FDF73A
:109AAC003FFF0346002B01D0012352E0019B1B7C9E
:109ABC0003F07F03DAB2019B1A74284B0493029AC9
:109ACC00019B1B6A19461046FEF789F903468DF86F
:109ADC0017309DF81730002B39D1019B5B6A03932B
:109AEC00039B0B331A78039B0B3342F02002D2B248
:109AFC001A70019B1868019B9B681A460399FEF724
:109B0C0078FE039B03F11C02019BDB68194610468F
:109B1C00FEF78EF8039B163304991846FEF788F867
:109B2C00039B123300211846FEF767F8029B0122B3
:109B3C00DA70029B1846FEF783F903468DF817304E
:109B4C00019B1B7C23F04003DAB2019B1A749DF835
:109B5C001730184607B05DF804FB00BF0000214821
:109B6C0000B585B001900198FFF776FF03468DF89C
:109B7C000F309DF80F30002B0FD1019B02AA11461C
:109B8C001846FFF7F1FB03468DF80F309DF80F30A8
:109B9C00002B02D1019B00221A609DF80F30184651
:109BAC0005B05DF804FB00B587B001900091019BF6
:109BBC00002B01D1092356E0019B049303A96B46AA
:109BCC0000221846FFF780F903468DF817309DF8F0
:109BDC001730002B3ED1039A049B1A60009B194648
:109BEC000198FFF75FF803468DF817309DF8173092
:109BFC00002B28D1019B93F82B305BB2002B13DB8D
:109C0C00049B9B7903F01003002B0AD0039A019B51
:109C1C00DB6919461046FEF7CEFD0246049B9A609E
:109C2C0002E005238DF817309DF81730002B0AD170
:109C3C00039BDA88049B9A8000210198FEF72EFC86
:109C4C0003468DF817309DF81730042B02D10523ED
:109C5C008DF817309DF81730002B02D0049B002292
:109C6C001A609DF81730184607B05DF804FB00B574
:109C7C0085B001900091019B02AA11461846FFF78E
:109C8C0073FB03468DF80F309DF80F30002B2ED14F
:109C9C00009B002B07D100210198FEF7FFFB034628
:109CAC008DF80F3023E000210198FEF7C1FD03462B
:109CBC008DF80F309DF80F30042B02D100238DF856
:109CCC000F309DF80F30002B11D100990198FEF741
:109CDC00B0FE00210198FEF75BFC03468DF80F30B7
:109CEC009DF80F30042B02D100238DF80F309DF816
:109CFC000F30184605B05DF804FB00B58FB001902D
:109D0C00009102A901AB00221846FFF7DDF80346CB
:109D1C008DF837309DF83730002B1DD1019A02ABEE
:109D2C0011461846FEF7BEFF03468DF837309DF8F6
:109D3C003730002B10D19DF833305BB2002B03DA97
:109D4C0006238DF8373007E0009B002B04D002ABC4
:109D5C0000991846FEF76DFE9DF8373018460FB087
:109D6C005DF804FB82B001900091019B1B78022BE3
:109D7C0028D0022B28DC002B02D0012B26D023E08C
:109D8C00019B1B79032B1BD801A252F823F000BFB7
:109D9C00AD9D0200BD9D0200C59D0200B59D020057
:109DAC000C4B01221A700CE00A4B01221A7008E0CD
:109DBC00094B01221A7004E0074B01221A7000E0D3
:109DCC0000BF04E000BF02E000BF00E000BF00BF26
:109DDC0002B07047667100206771002000B587B033
:109DEC0001AB00221A605A609A60DA600F2301936B
:109DFC00102302934FF0CD63039302238DF81030A0
:109E0C0001A90023084A094817F0CEFC0590059BD0
:109E1C00002B01D0059B03E0044817F0A1FD0023A3
:109E2C00184607B05DF804FB719D0200E070050058
:109E3C0008B5034817F0B2FD00BF184608BD00BFB7
:109E4C00E070050000B585B00390019200930B46BD
:109E5C008DF80B30039B9DF80B201A70039B01337C
:109E6C00009A019918462BF043FF00BF05B05DF82E
:109E7C0004FB000000B58DB00346029101928DF8F1
:109E8C000F3042F210730B939DF80F10019B029A46
:109E9C001848FFF7D7FF68238DF8153000238DF88D
:109EAC001430019B01330693124B089305AB00222F
:109EBC001946114818F07AF80A9000BF0F4B1B781E
:109ECC00DBB283F00103DBB2002B05D00B9B013B13
:109EDC000B930B9B002BF1D10B9B002B01D10D2372
:109EEC0003E0064B00221A700A9B18460DB05DF871
:109EFC0004FB00BF68710020E07005006671002053
:109F0C0000B589B00346049103928DF8173042F2E4
:109F1C00107307930DF1170200230093012368219E
:109F2C00254818F063F80690069B002B01D0069B81
:109F3C003DE000BF214B1B78DBB283F00103DBB2A9
:109F4C00002B05D0079B013B0793079B002BF1D1FE
:109F5C00079B002B01D10D2329E0184B00221A700E
:109F6C00039B049A6821144818F068F80690069B25
:109F7C00002B01D0069B1AE042F21073079300BF2E
:109F8C000F4B1B78DBB283F00103DBB2002B05D047
:109F9C00079B013B0793079B002BF1D1079B002BE1
:109FAC0001D10D2303E0064B00221A70069B1846C4
:109FBC0009B05DF804FB00BFE0700500667100207D
:109FCC006771002000B583B001900091019B002BBC
:109FDC0006D0019B1B68019A52681146009898475D
:109FEC0000BF03B05DF804FB30B583B00190009165
:109FFC004FF49F62002101982BF0A4FE019A009B64
:10A00C0014461D460FCD0FC495E8030084E80300E9
:10A01C00024A019B136000BF03B030BD24760020C0
:10A02C0000B585B00190019B002B0AD0074B43F083
:10A03C0001030393019B9B010293039B0298984796
:10A04C0000E000BF05B05DF804FB00BF40710500E7
:10A05C0000B583B00190019B002B0AD04FF47A70AD
:10A06C00FFF7DEFF019B013B0193019B002BF5D118
:10A07C0000E000BF03B05DF804FB000082B001906B
:10A08C00019B013B202B6DD801A252F823F000BF9D
:10A09C0029A1020051A1020069A102002DA1020018
:10A0AC0071A1020071A1020071A1020071A1020054
:10A0BC0061A1020065A1020049A1020071A1020088
:10A0CC0071A1020031A1020045A1020035A10200DC
:10A0DC0055A102003DA1020041A102004DA10200C8
:10A0EC0071A102005DA1020071A1020071A1020028
:10A0FC0059A1020039A1020071A102006DA1020058
:10A10C0071A1020071A1020071A1020021A1020043
:10A11C0025A10200022326E0032324E0002322E0F1
:10A12C00012320E004231EE005231CE006231AE093
:10A13C00072318E0082316E0092314E00A2312E091
:10A14C000B2310E00C230EE00D230CE00E230AE091
:10A15C000F2308E0102306E0112304E0122302E091
:10A16C00132300E01423184602B0704782B0034654
:10A17C008DF807309DF80730132B53D801A252F8F5
:10A18C0023F000BFE1A10200E5A10200E9A1020059
:10A19C00EDA10200F1A10200F5A10200F9A102005B
:10A1AC00FDA1020001A2020005A2020009A2020008
:10A1BC000DA2020011A2020015A2020019A20200B7
:10A1CC001DA2020021A2020025A2020029A2020067
:10A1DC002DA20200012326E0042324E0202322E008
:10A1EC00212320E00E231EE010231CE01A231AE08A
:10A1FC00122318E0132316E00F2314E00B2312E0B4
:10A20C00142310E002230EE011230CE019230AE0C2
:10A21C00162308E0092306E00A2304E0032302E0E6
:10A22C001C2300E04123184602B0704700B58BB0E8
:10A23C0003900291019200934FF4A66200210398BF
:10A24C002BF080FD029B5B690493029B1B680593BA
:10A25C00029B5B680693029B9B680793029BDB68DF
:10A26C000893029B1B69022B0CBF01230023DBB25A
:10A27C000993039B039A1A60039B184A5A60039B29
:10A28C00019A9A60039B009AC3F82825039B0C9AA9
:10A29C00C3F82C25039B303304AA11461846FFF74C
:10A2AC00A3FE039B012283F8A422039B012283F8C3
:10A2BC00A822039B012283F8AC22039B303318465F
:10A2CC0008F01AFF0C220321039800F0F4F90A207D
:10A2DC00FFF7BEFE00BF0BB05DF804FBE870050095
:10A2EC0000B585B00190019B0393039B3033054A65
:10A2FC000399184609F0F6FC0346184605B05DF8BC
:10A30C0004FB00BF2DA8020000B585B001900091A0
:10A31C00019B0393039B30330099184608F097FE7A
:10A32C000346184605B05DF804FB00B585B00190F6
:10A33C0000230393019800F052F80246039B134349
:10A34C000393019800F00EF80246039B134303930A
:10A35C00039B002B01D0039B00E00023184605B0A3
:10A36C005DF804FB00B587B00190019B05930DF1DE
:10A37C000F0319460598FFF7C7FF0490049B002BA9
:10A38C0001D0049B27E0059B3033184608F06EFE85
:10A39C00059B03F13000059BD3F82815059BD3F8DA
:10A3AC002C351A4608F0D8FE0490049B002B10D1D3
:10A3BC00059B3033184609F005FA059B30331846D7
:10A3CC0008F0F0FE059B3033184608F095FE00238C
:10A3DC0001E000BF049B184607B05DF804FB00B514
:10A3EC0085B0019000230393019B029300230393F8
:10A3FC000EE00399019800F075F80346002B04D188
:10A40C0000220399019800F0C1F8039B01330393D8
:10A41C00039B402BEDDD029B3033184609F0E8F925
:10A42C000346184605B05DF804FB00B587B00390F1
:10A43C00029101920093039B0593059B3033009A84
:10A44C0092B20199184609F07DFA0346184607B0F6
:10A45C005DF804FB00B585B001900091019B02935F
:10A46C000099019800F03EF80346002B02D06FF0E3
:10A47C000A0333E0009B202B0ED0009B012B0BD04A
:10A48C00009B212B08D0009B042B05D0009B022B9A
:10A49C0002D06FF00A0321E0029B93F8C030002B2E
:10A4AC0001D000231AE00198FFF799FF029B30338B
:10A4BC00184608F00AFC034603F00703072B06D1E5
:10A4CC00029B012283F8C0200023039302E04FF08B
:10A4DC00FF3303930198FFF728FF039B184605B041
:10A4EC005DF804FB00B585B001900091019B0393CE
:10A4FC00009B202B29D0009B212B26D0009B0F2BBF
:10A50C0023D0009B012B20D0009B042B1DD0009B43
:10A51C00102B1AD0009B112B17D0009B122B14D090
:10A52C00009B132B11D0009B1C2B0ED0009B192BC6
:10A53C000BD0009B1A2B08D0009B092B05D0009B3D
:10A54C000A2B02D0009B162B01D100231AE0009B92
:10A55C00022B0BD0009B0E2B08D0009B142B05D08C
:10A56C00009B032B02D0009B0B2B09D1039B303398
:10A57C00184601F042FA0346002B01D0002301E0FB
:10A58C006FF00A03184605B05DF804FB10B586B0F1
:10A59C00039002910192039B0593059B03F13004F8
:10A5AC000298FFF76BFD0346019A1946204609F005
:10A5BC0033F90346184606B010BD000010B586B03E
:10A5CC00039002910192039B0593019B0A4AA2FB03
:10A5DC0003239B090193059B03F130040298FFF7B9
:10A5EC004DFD0346019A1946204609F046F90346EB
:10A5FC00184606B010BD00BFD34D621000B587B031
:10A60C00039002910192039B0593059B3033019AB1
:10A61C0092B21146184609F06DF90346184607B078
:10A62C005DF804FB10B586B0039002910192039B78
:10A63C000593059B03F130040298FFF71FFD0346B9
:10A64C001A460199204609F015F80346184606B03B
:10A65C0010BD00B587B00390029100931346ADF87E
:10A66C000630039B0593059B03F13000BDF80630C3
:10A67C00D9B2089B009A0AF013FD0346184607B09E
:10A68C005DF804FB00B587B003900291009313466C
:10A69C00ADF80630039B0593059B03F13000BDF824
:10A6AC000630D9B2089B009A0AF0E6FC034618461D
:10A6BC0007B05DF804FB00B585B00390029113461A
:10A6CC008DF807300A20FFF7C3FC039B3033029A46
:10A6DC00D1B29DF80720184600F0C0FE0A20FFF703
:10A6EC00B7FC00BF05B05DF804FB10B58AB0039051
:10A6FC00029101920093039B099300230893019B01
:10A70C00072B32D0019B072B48DC019B032B37D046
:10A71C00019B052B42D1099B03F130040298FFF7F2
:10A72C00ADFC0346194605AB1A46204608F0CEFE92
:10A73C00099B03F130040298FFF7A0FC0346009A32
:10A74C001946204608F03EFD0890099B03F13004A1
:10A75C000298FFF793FC0346194605AB1A462046B0
:10A76C0008F026FE00BF089B1AE0099B03F130029B
:10A77C00009B1B781946104608F036FF03460FE085
:10A78C00099B03F130040298FFF778FC0346009A0A
:10A79C001946204608F00CFE034601E04FF0FF334B
:10A7AC0018460AB010BD10B586B003900291019204
:10A7BC000093039B0593019B072B16D0019B072B42
:10A7CC0029DC019B032B18D0019B052B23D1059B66
:10A7DC0003F130040298FFF751FC0346009A194626
:10A7EC00204608F071FD034617E0059B30330099B5
:10A7FC00184608F014FF03460FE0059B03F13004E4
:10A80C000298FFF73BFC0346009A1946204608F0D5
:10A81C005DFE034601E04FF0FF33184606B010BD55
:10A82C0000B59FB00790CDE904230B468DF81B3083
:10A83C00079B1D939DF81B301846FFF797FC1C9047
:10A84C0008AB0293219B0193209B0093DDE9042329
:10A85C001C991D9800F000F90346002B06D01D9B97
:10A86C009B6808AA11461846FFF7ACFB00BF1FB047
:10A87C005DF804FB00B58BB00390019200930B467E
:10A88C008DF80B309DF80B30013B202B00F2DC8057
:10A89C0001A252F823F000BFB3A90200CDA9020017
:10A8AC0035AA020099A9020055AA020055AA020075
:10A8BC0055AA020055AA0200B3A90200B3A90200CE
:10A8CC00E7A9020055AA020055AA020061A90200DC
:10A8DC0001AA020029A902001DAA02001DAA020059
:10A8EC0025AA0200E7A9020055AA02001DAA02002F
:10A8FC0055AA020055AA02001DAA020011AA0200C4
:10A90C0055AA02001DAA020055AA020055AA02006F
:10A91C0055AA020045AA020045AA020004AB18225F
:10A92C00019918462BF0E4F90C9B103304A90C2266
:10A93C0018462BF0DDF90C9B03F11C0004AB0C3317
:10A94C000C2219462BF0D4F90C9B2833009A127860
:10A95C001A707BE004AB1822019918462BF0C8F949
:10A96C000C9B103304A90C2218462BF0C1F90C9B3C
:10A97C0003F11C0004AB0C330C2219462BF0B8F974
:10A98C000C9B2833009A12781A705FE00C9B1033E2
:10A99C000C22019918462BF0ABF90C9B2833009A2A
:10A9AC0012781A7052E00C9B10330C220199184645
:10A9BC002BF09EF90C9B2833009A12781A7045E004
:10A9CC000C9B10330C22019918462BF091F90C9B1F
:10A9DC002833009A12781A7038E00C9B2033009AB6
:10A9EC0012681A600C9B10331022019918462BF038
:10A9FC007FF92BE00C9B10331022019918462BF099
:10AA0C0077F923E00C9B1033019A12681A601DE051
:10AA1C000C9B01221A6119E00C9B1033082201993E
:10AA2C0018462BF065F911E00C9B10330C220199A0
:10AA3C0018462BF05DF909E00C9B10330C220199A0
:10AA4C0018462BF055F901E0002300E001231846CD
:10AA5C000BB05DF804FB00BF00B587B00590049106
:10AA6C00CDE90223502200210A982BF06BF9049BAC
:10AA7C00D9B20A9B0093099B089A0598FFF7FAFE36
:10AA8C000346002B01D100230BE0049A0A9B1A60A9
:10AA9C000A99DDE90223C1E902230A9B00225A60CC
:10AAAC000123184607B05DF804FB82B00190019BAE
:10AABC004FF6FF72A3F8DE24019B4FF6FF72A3F84A
:10AACC00E024019B4FF6FF72A3F8E224019B4FF6A2
:10AADC00FF72A3F8E424019B4FF6FF72A3F8E6245F
:10AAEC00019B4FF6FF72A3F8E824019B4FF6FF720F
:10AAFC00A3F8EA24019B4FF6FF72A3F8EC24019B08
:10AB0C004FF6FF72A3F8EE24019B4FF6FF72A3F8E9
:10AB1C00F0240023184602B0704710B58CB0039097
:10AB2C0002910192029B002B02D14FF0FF3350E0B7
:10AB3C00019B002B02D14FF0FF334AE008AB1946C2
:10AB4C00019804F0F3FD039B03F1A80104AA08ABE0
:10AB5C00184604F036FB059B07991E22184605F093
:10AB6C0002FA0446049B06991E22184605F0FBF9CE
:10AB7C000346E31A5B009A13029B1A60069B079923
:10AB8C001E22184605F0EFF90446049B05991E2277
:10AB9C00184605F0E8F9034623445A00029B043397
:10ABAC0092131A60059B05991E22184605F0DBF9D5
:10ABBC000346C3F10054069B06991E22184605F065
:10ABCC00D2F90346E31A5A00029B083392131A6017
:10ABDC00002318460CB010BD84B003900291019272
:10ABEC00039B002B02D14FF0FF3327E0029B002B7D
:10ABFC0002D14FF0FF3321E0019B002B02D14FF02B
:10AC0C00FF331BE0019B1A68029B1B68D21A039B43
:10AC1C001A60019B04331968029B04331A68039B66
:10AC2C0004338A1A1A60019B08331968029B083393
:10AC3C001A68039B08338A1A1A600023184604B05A
:10AC4C007047000010B592B0019000913F4B1193EA
:10AC5C00019B002B02D14FF0FF3374E0009B002BC3
:10AC6C0002D14FF0FF336EE00CAB1946009804F0A4
:10AC7C005DFD03AA0CAB1146184605F0D7F9069BEF
:10AC8C005B42DA13039BDB131946104605F0A8FB55
:10AC9C0003465A00019B1A60019B1B6810221199F4
:10ACAC00184605F060F90246019B1A600A9B5B424C
:10ACBC00DA130B9BDB131946104605F091FB024689
:10ACCC00019B043352001A60019B04331868019BEA
:10ACDC001C1D1022119905F046F903462360099BAF
:10ACEC0009991E22184605F03EF91090109BC3F1ED
:10ACFC0080431093109804F05DFD1090099BDA13BB
:10AD0C00109BDB131946104605F06AFB0246019BAB
:10AD1C00083352001A60019B08331868019B03F139
:10AD2C0008041022119905F01EF903462360019BBB
:10AD3C001B68002B06DA019B1B6803F1B4731A46DF
:10AD4C00019B1A600023184612B010BDB84B390095
:10AD5C0000B583B001900B468DF803301346ADF867
:10AD6C0000309DF80330033B202B00F2428201A2FD
:10AD7C0052F823F061AF0200FFB10200FFB10200F4
:10AD8C00FFB10200FFB10200FFB1020005AE0200EC
:10AD9C00EDAE0200B3AF0200FFB10200FFB1020042
:10ADAC00FFB1020079AE0200FFB10200FFB1020058
:10ADBC00FFB10200FFB10200FFB10200FFB10200BF
:10ADCC00FFB10200FFB10200FFB102005FB102004F
:10ADDC00FFB10200FFB10200FFB1020005B002009A
:10ADEC00EDB00200AFB10200FFB10200FFB10200F2
:10ADFC00FFB1020079B00200019BBDF80020A3F85E
:10AE0C00DE240921019801F09AF90346002B09D0A0
:10AE1C00019BB3F8DE34BDF80020934228BF1346E3
:10AE2C00ADF800300F21019801F089F90346002B91
:10AE3C0009D0019BB3F8E034BDF80020934228BF41
:10AE4C001346ADF800300A21019801F078F9034659
:10AE5C00002B00F0D081019BB3F8E234BDF8002048
:10AE6C00934228BF1346ADF80030C4E1019BBDF8F6
:10AE7C000020A3F8E0240921019801F060F90346B1
:10AE8C00002B09D0019BB3F8DE34BDF800209342AF
:10AE9C0028BF1346ADF800300F21019801F04FF98F
:10AEAC000346002B09D0019BB3F8E034BDF8002019
:10AEBC00934228BF1346ADF800300A21019801F0E7
:10AECC003EF90346002B00F09881019BB3F8E23465
:10AEDC00BDF80020934228BF1346ADF800308CE13A
:10AEEC00019BBDF80020A3F8E2240921019801F090
:10AEFC0026F90346002B09D0019BB3F8DE34BDF8CC
:10AF0C000020934228BF1346ADF800300F21019862
:10AF1C0001F015F90346002B09D0019BB3F8E0347E
:10AF2C00BDF80020934228BF1346ADF800300A212B
:10AF3C00019801F004F90346002B00F06081019B9D
:10AF4C00B3F8E234BDF80020934228BF1346ADF8A5
:10AF5C00003054E1019BBDF80020A3F8EC24032140
:10AF6C00019801F0ECF80346002B09D0019BB3F8D3
:10AF7C00EC34BDF80020934228BF1346ADF80030E6
:10AF8C000B21019801F0DBF80346002B00F039810E
:10AF9C00019BB3F8EA34BDF80020934228BF134656
:10AFAC00ADF800302DE1019BBDF80020A3F8EA2498
:10AFBC000321019801F0C3F80346002B09D0019B33
:10AFCC00B3F8EC34BDF80020934228BF1346ADF81B
:10AFDC0000300B21019801F0B2F80346002B00F071
:10AFEC001281019BB3F8EA34BDF80020934228BFCC
:10AFFC001346ADF8003006E1019BBDF80020A3F824
:10B00C00E4241D21019801F09AF80346002B09D085
:10B01C00019BB3F8E434BDF80020934228BF1346DB
:10B02C00ADF800302321019801F089F80346002B7C
:10B03C0009D0019BB3F8E634BDF80020934228BF39
:10B04C001346ADF800301E21019801F078F8034644
:10B05C00002B00F0DA80019BB3F8E834BDF8002037
:10B06C00934228BF1346ADF80030CEE0019BBDF8EB
:10B07C000020A3F8E6241D21019801F060F8034696
:10B08C00002B09D0019BB3F8E434BDF800209342A7
:10B09C0028BF1346ADF800302321019801F04FF87A
:10B0AC000346002B09D0019BB3F8E634BDF8002011
:10B0BC00934228BF1346ADF800301E21019801F0D1
:10B0CC003EF80346002B00F0A280019BB3F8E83455
:10B0DC00BDF80020934228BF1346ADF8003096E02F
:10B0EC00019BBDF80020A3F8E8241D21019801F074
:10B0FC0026F80346002B09D0019BB3F8E434BDF8C5
:10B10C000020934228BF1346ADF80030232101984C
:10B11C0001F015F80346002B09D0019BB3F8E63477
:10B12C00BDF80020934228BF1346ADF800301E2115
:10B13C00019801F004F80346002B6AD0019BB3F888
:10B14C00E834BDF80020934228BF1346ADF8003018
:10B15C005FE0019BBDF80020A3F8F02419210198B1
:10B16C0000F0EDFF0346002B09D0019BB3F8F0343F
:10B17C00BDF80020934228BF1346ADF800301F21C4
:10B18C00019800F0DCFF0346002B44D0019BB3F880
:10B19C00EE34BDF80020934228BF1346ADF80030C2
:10B1AC0039E0019BBDF80020A3F8EE241921019889
:10B1BC0000F0C5FF0346002B09D0019BB3F8F03417
:10B1CC00BDF80020934228BF1346ADF800301F2174
:10B1DC00019800F0B4FF0346002B1ED0019BB3F87E
:10B1EC00EE34BDF80020934228BF1346ADF8003072
:10B1FC0013E000BF12E000BF10E000BF0EE000BF84
:10B20C000CE000BF0AE000BF08E000BF06E000BF92
:10B21C0004E000BF02E000BF00E000BFBDF800305A
:10B22C00184603B05DF804FB00B587B003900B46DD
:10B23C0001928DF80B304FF6FF73ADF816309DF878
:10B24C000B30033B202B00F2038101A252F823F0B8
:10B25C00C1B302005DB402005DB402005DB4020033
:10B26C005DB402005DB40200E1B20200E1B2020082
:10B27C00C1B302005DB402005DB402005DB4020013
:10B28C00E1B202005DB402005DB402005DB40200E4
:10B29C005DB402005DB402005DB402005DB4020056
:10B2AC005DB402005DB402000FB402005DB4020094
:10B2BC005DB402005DB4020051B3020051B3020050
:10B2CC000FB402005DB402005DB402005DB4020074
:10B2DC0051B302000921039800F031FF0346002B03
:10B2EC0009D0039BB3F8DE34BDF81620934228BF77
:10B2FC001346ADF816300F21039800F020FF0346DB
:10B30C00002B09D0039BB3F8E034BDF81620934210
:10B31C0028BF1346ADF816300A21039800F00FFF32
:10B32C000346002B09D0039BB3F8E234BDF816207A
:10B33C00934228BF1346ADF81630019BBDF816207A
:10B34C001A8086E01D21039800F0F9FE0346002BBD
:10B35C0009D0039BB3F8E434BDF81620934228BF00
:10B36C001346ADF816302321039800F0E8FE03468F
:10B37C00002B09D0039BB3F8E634BDF8162093429A
:10B38C0028BF1346ADF816301E21039800F0D7FEE7
:10B39C000346002B09D0039BB3F8E834BDF8162004
:10B3AC00934228BF1346ADF81630019BBDF816200A
:10B3BC001A804EE00321039800F0C1FE0346002BD7
:10B3CC0009D0039BB3F8EC34BDF81620934228BF88
:10B3DC001346ADF816300B21039800F0B0FE03466F
:10B3EC00002B09D0039BB3F8EA34BDF81620934226
:10B3FC0028BF1346ADF81630019BBDF816201A80F5
:10B40C0027E01921039800F09AFE0346002B09D07F
:10B41C00039BB3F8F034BDF81620934228BF1346B3
:10B42C00ADF816301F21039800F089FE0346002B5F
:10B43C0009D0039BB3F8EE34BDF81620934228BF15
:10B44C001346ADF81630019BBDF816201A8000E0AB
:10B45C0000BF00BF07B05DF804FB00BF82B00190D5
:10B46C000B468DF8033013468DF802309DF80330EF
:10B47C00032B19D1019B2522C3F888209DF80220AB
:10B48C00019BC3F88420019B012283F88C20019B33
:10B49C00012283F87D22019BFF2283F88122019BEC
:10B4AC00FF2283F885220CE0019B0022C3F8882040
:10B4BC00019B0022C3F88420019B002283F88C207E
:10B4CC0000BF00BF02B0704700B587B00390039B6C
:10B4DC0050332422002118462AF034FC039B4D33B0
:10B4EC000322002118462AF02DFC039B0022DA6768
:10B4FC00039B012283F88020039B002283F8812088
:10B50C00039BD3F88430DAB204AB0193012300938C
:10B51C0000230021039800F0CCFC0590059B002B28
:10B52C0001D0059B3DE09DF81030482B02D04FF028
:10B53C00FF3336E0039B1D4A5A67039B1C4A9A67EC
:10B54C00039B312283F88220039B802283F84D20B9
:10B55C00039B802283F84E20039B802283F84F208C
:10B56C00039BD3F88430DAB2039B93F882301946EC
:10B57C00002300930B460121039800F03FFD05903A
:10B58C00059B002B01D0059B0BE0039B012283F84C
:10B59C008120039B022283F88C20039800F0A6F9EB
:10B5AC000346184607B05DF804FB00BF5071050058
:10B5BC004871050000B591B00390039BD3F884301B
:10B5CC008DF83330039B4D330B9306AB012240F2C5
:10B5DC008511039809F0EEFE0F900F9B002B01D004
:10B5EC000F9B7FE1002240F28511039809F07CFE4D
:10B5FC000F900F9B002B01D00F9B73E106AB013317
:10B60C00012240F28911039809F0D4FE0F900F9B90
:10B61C00002B01D00F9B65E1002240F289110398A9
:10B62C0009F062FE0F900F9B002B01D00F9B59E18C
:10B63C000DF1170301224FF4C071039809F0BAFE03
:10B64C000F900F9B002B01D00F9B4BE100224FF46E
:10B65C00C071039809F048FE0F900F9B002B01D08E
:10B66C000F9B3FE131238DF82B309DF82B309DF84B
:10B67C003320002100910021039800F0BFFC0F90B3
:10B68C000F9B002B40F0F480039BD3F88830232BC6
:10B69C0012D0039BD3F88830242B0DD09DF8332087
:10B6AC00402300930C230021039800F0A7FC0F907B
:10B6BC000F9B002B40F0DE809DF82B309DF8332043
:10B6CC00102100910021039800F098FC0F900F9B23
:10B6DC00002B40F0D1800A238DF83B3022E043F65A
:10B6EC00982024F0C5FD9DF8332007AB019301236E
:10B6FC00009310230021039800F0DBFB0F900F9BAD
:10B70C00002B40F0BB809DF81C3003F00103002B94
:10B71C0005D19DF83B30013B8DF83B3002E0002316
:10B72C008DF83B309DF83B30002BD8D19DF81C3068
:10B73C0003F00103002B03D14FF0FF330F93A6E06E
:10B74C009DF8332007AB01930623009311230021AE
:10B75C00039800F0AEFB0F900F9B002B40F09080F5
:10B76C009DF81D301B021AB29DF81C301BB21343FE
:10B77C00ADF828309DF81F301B021AB29DF81E3010
:10B78C001BB21343ADF826309DF821301B021AB2C0
:10B79C009DF820301BB21343ADF82430039BD3F833
:10B7AC008830232B02D107230D9301E008230D933E
:10B7BC00BDF928300B9A1278803203FB02F20D9BF4
:10B7CC0042FA03F3ADF82830BDF926300B9A01325A
:10B7DC001278803203FB02F20D9B42FA03F3ADF8B0
:10B7EC002630BDF924300B9A02321278803203FBDA
:10B7FC0002F20D9B42FA03F3ADF824304FF0FF3305
:10B80C000F93039B5B6FB3F90030BDF928209A426C
:10B81C0038DC039B9B6FB3F90030BDF928209A42AA
:10B82C0030DB039B5B6F0233B3F90030BDF926208C
:10B83C009A4229DC039B9B6F0233B3F90030BDF9AC
:10B84C0026209A4220DB039B5B6F0433B3F9003054
:10B85C00BDF924209A4219DC039B9B6F0433B3F986
:10B86C000030BDF924209A4210DB00230F930EE028
:10B87C0000BF0CE000BF0AE000BF08E000BF06E01C
:10B88C0000BF04E000BF02E000BF00E000BF039B6C
:10B89C00D3F88830232B16D0039BD3F88830242B75
:10B8AC0011D0039BD3F88830252B0CD09DF8332076
:10B8BC00002300930C230021039800F09FFB024609
:10B8CC000F9B13430F939DF82B309DF833200021D1
:10B8DC0000910021039800F091FB02460F9B13434B
:10B8EC000F930F9B184611B05DF804FB00B585B0A3
:10B8FC000190019B93F88130002B01D100231DE0B6
:10B90C000021019800F0B3FB03900121019800F095
:10B91C00AEFB0246039B13430393039B002B01D006
:10B92C00039B0BE0019800F0CCFB0246039B1343F6
:10B93C000393019B002283F88120039B184605B0DA
:10B94C005DF804FB00B589B00390039B93F881303C
:10B95C00002B01D000234CE0039B93F88030002B8C
:10B96C0006D003238DF81F300A238DF81E3005E016
:10B97C0010238DF81F3009238DF81E30039BD3F84C
:10B98C008430DAB29DF81E3043F05003DBB29DF8E0
:10B99C001F1000930B460021039800F035FA069017
:10B9AC00069B002B01D0069B23E001238DF817305A
:10B9BC00039BD3F88430DAB2039B93F882109DF882
:10B9CC00173000930B460121039800F0B5FA06904E
:10B9DC00069B002B01D0069B0BE0039800F05BFB51
:10B9EC000246069B13430693039B012283F8812096
:10B9FC00069B184609B05DF804FB82B00190019BD0
:10BA0C0093F88C30022B01D1012300E0002318465F
:10BA1C0002B0704700B5A3B00390029101920023CD
:10BA2C00219320E00023209317E0219A13465B001A
:10BA3C001A44209B13441A46029B9918209A1346C9
:10BA4C005B001A44219B134491F9002088336B440A
:10BA5C0003F8202C209B01332093209B022BE4DD48
:10BA6C00219B01332193219B022BDBDD039BD3F81C
:10BA7C008830252B04D1854B1E9316231D9304E08F
:10BA8C00824B1E9316231D9300BF0023219323E0AA
:10BA9C00039A219B13444D331B7803F18002219BA5
:10BAAC009B0088336B4443F8502C219B9B008833BC
:10BABC006B4453F8502C1D9B02FA03F31E99184645
:10BACC0003F00AFE0246219B9B0088336B4443F82B
:10BADC00502C219B01332193219B022BD8DD002379
:10BAEC00219326E0219B019A134493F900301846C8
:10BAFC002199674B83FB0132CB17D21A13465B009B
:10BB0C001344CA1A930088336B4453F8503C03FB1C
:10BB1C0000F2219B9B0088336B4443F8742C219BCF
:10BB2C009B0088336B44002243F8442C219B013347
:10BB3C002193219B082BD5DD002321934FE000237B
:10BB4C00209346E0219A13465B001A44209B134431
:10BB5C00039A12339B00134400229A6000231F9314
:10BB6C0031E0219A13465B001A441F9B1A44039B35
:10BB7C00A23253F822001F9A13465B001A44209BF2
:10BB8C0013449B0088336B4453F8743C194603F000
:10BB9C00A3FD219A13465B001A44209B1344039A7D
:10BBAC0012339B0013449968219A13465B001A4484
:10BBBC00209B13444218039912339B000B449A6048
:10BBCC001F9B01331F931F9B022BCADD209B01334C
:10BBDC002093209B022BB5DD219B01332193219BCC
:10BBEC00022BACDD0023219343E0002320933AE0A9
:10BBFC0000231F9331E0219A13465B001A44209BCB
:10BC0C0013449B0088336B4453F8440C219A13461D
:10BC1C005B001A441F9B134488336B4413F9203C7C
:10BC2C0019461F9A13465B001A44209B1344039A2F
:10BC3C0012339B0013449B6803FB01F1219A1346BA
:10BC4C005B001A44209B134442189B0088336B44BE
:10BC5C0043F8442C1F9B01331F931F9B022BCADDFF
:10BC6C00209B01332093209B022BC1DD219B0133B0
:10BC7C002193219B022BB8DD11AB1946039805F0DB
:10BC8C005DF80346184623B05DF804FB99999909B1
:10BC9C00565555552DE9F00F88B00390029101923D
:10BCAC00002307934AE04FF000024FF00003CDE968
:10BCBC000423002306932BE0079A13465B001A44D7
:10BCCC00069B1344039A12339B0013449B68DA17A8
:10BCDC001E461746069B5B00029A1344B3F90030CC
:10BCEC001B04DA179846914608FB07F206FB09F38A
:10BCFC001344A6FB08452B441D46DDE9042312EB37
:10BD0C00040A43EB050BCDE904AB069B0133069308
:10BD1C00069B022BD0DDDDE904014FF000024FF051
:10BD2C000003820F42EA81028B1707998900019860
:10BD3C00014413460B60079B01330793079B022BAF
:10BD4C00B1DD0023184608B0BDE8F00F704700B510
:10BD5C0083B00190019B40F283129A85019B4FF4B2
:10BD6C00C272DA85019B40F285121A86019B4FF450
:10BD7C00C3725A86019B40F287129A86019B4FF43C
:10BD8C00C472DA86019B40F289121A87019B4FF428
:10BD9C00C5725A87019B40F28B129A87019B4FF414
:10BDAC00C672DA87019B40F28D12A3F84020019BEA
:10BDBC004FF4C772A3F84220019B40F28F12A3F8F4
:10BDCC004420019B4FF4C872A3F84620019B40F21B
:10BDDC009112A3F84820019B4FF4C972A3F84A2092
:10BDEC000021019800F043F90121019800F03FF97E
:10BDFC000221019800F03BF90321019800F037F97A
:10BE0C0000BF03B05DF804FB00B587B0039002914E
:10BE1C0011461A460B468DF8073013468DF806303E
:10BE2C00002305939DF8073063F07F03DBB28DF898
:10BE3C001330039A029B0533DB00134499880DF1F0
:10BE4C0013030122039809F0CEF90246059B134314
:10BE5C0005939DF806308DF81330039A029B053339
:10BE6C00DB001344D9880DF113030122039809F068
:10BE7C00BAF90246059B134305939DF8203063F0F5
:10BE8C007F03DBB28DF81330039A029B0533DB0082
:10BE9C00134419890DF113030122039809F0A3F936
:10BEAC000246059B13430593059B184607B05DF8A6
:10BEBC0004FB00B589B005900491029313468DF8EC
:10BECC000F3000230793029BD9B20A9BDBB29DF87B
:10BEDC000F2000930B4604990598FFF795FF024637
:10BEEC00079B13430793059800F0D5F80246079B70
:10BEFC00134307934EF6602024F0BAF9059800F02E
:10BF0C00E0F80246079B134307930A9A0B9B3B21CD
:10BF1C00059809F04FFA0246079B134307930499BF
:10BF2C00059800F0A4F80246079B13430793079B60
:10BF3C00184609B05DF804FB00B587B00390029178
:10BF4C0011461A460B468DF8073013468DF806300D
:10BF5C00002305939DF807308DF81330039A029B4C
:10BF6C000533DB00134499880DF113030122039868
:10BF7C0009F039F90246059B134305939DF80630E9
:10BF8C008DF81330039A029B0533DB001344D988D8
:10BF9C000DF113030122039809F025F90246059BC4
:10BFAC00134305939DF820308DF81330039A029BB0
:10BFBC000533DB00134459890DF113030122039857
:10BFCC0009F011F90246059B1343059381238DF863
:10BFDC001330039A029B0533DB00134419890DF1CE
:10BFEC0013030122039809F0FEF80246059B134344
:10BFFC000593059B184607B05DF804FB00B589B0A6
:10C00C0005900491029313468DF80F30002307938B
:10C01C00029BD9B29DF80F209DF8283000930B4657
:10C02C0004990598FFF788FF0246079B1343079373
:10C03C00059800F030F80246079B134307934EF621
:10C04C00602024F015F9059800F03BF80246079B98
:10C05C00134307930499059800F009F80246079BCF
:10C06C0013430793079B184609B05DF804FB00B512
:10C07C0083B001900091019A009B0533DB001344BF
:10C08C001B8900221946019809F02EF9034618461F
:10C09C0003B05DF804FB00B583B00190019B1B7FDE
:10C0AC0043F02003DAB2019B1A77019B1B7F1A46DF
:10C0BC000321019809F018F90346184603B05DF8FE
:10C0CC0004FB00B583B00190019B1B7F23F0200380
:10C0DC00DAB2019B1A77019B1B7F1A460321019848
:10C0EC0009F002F90346184603B05DF804FB00B5ED
:10C0FC0087B003900291019200230593029B5B1081
:10C10C000293059B01330593029B5B10002BF5D129
:10C11C00059B032B01DC042305930122059B02FAEA
:10C12C0003F31A46019B1A60059BDBB21946039870
:10C13C0002F0CAFB0346184607B05DF804FB82B058
:10C14C0001900B468DF803309DF803305B09DBB290
:10C15C001A46019B583253F822309DF8032002F006
:10C16C001F02012101FA02F21340184602B0704777
:10C17C0000B587B00390029101924FF6FF73ADF8B2
:10C18C0016301EE0029B1B7819460398FFF7D7FF69
:10C19C000346002B12D0029B5B78039A80335B0022
:10C1AC001344DB88ADF81430BDF81620BDF81430FC
:10C1BC009A4203D9BDF81430ADF81630029B023305
:10C1CC000293019B5A1E0192002BDBD1BDF8163055
:10C1DC00184607B05DF804FB00B587B0039008461D
:10C1EC0011461A460346ADF80A300B46ADF8083036
:10C1FC0013468DF8073000230593BDF80A304FF62F
:10C20C00FF7293422DD0BDF80A3040F2654203FB19
:10C21C0002F2BDF808304FF47A7101FB03F392FB84
:10C22C00F3F3ADF812309DF80730BDF80810BDF8E7
:10C23C00122011FB02F291B2039A5C335B0013449F
:10C24C000A469A809DF80710BDF81230013B9BB24C
:10C25C001BB21A46039804F0B3FA0246059B13432B
:10C26C000593059B184607B05DF804FB84B00346A4
:10C27C00ADF80630BDF80630C82B28BFC823ADF882
:10C28C000E30BDF80E3040F2654202FB03F3054A56
:10C29C0082FB03129211DB17D31A9BB2184604B01F
:10C2AC00704700BFD34D621030B58FB00190504B2A
:10C2BC0003AC1D460FCD0FC40FCD0FC495E807007E
:10C2CC0003C4228003AB152219460198FFF750FFD7
:10C2DC000346ADF8363001210198FFF730FF0346D5
:10C2EC00002B1BD02A210198FFF729FF0346002BB6
:10C2FC000DD0019BB3F84822019BB3F84632934210
:10C30C0028BF13469AB2019BA3F8062113E0019BA8
:10C31C00B3F84622019BA3F806210CE02A210198D0
:10C32C00FFF70DFF0346002B05D0019BB3F8482205
:10C33C00019BA3F80621019BB3F85431002B09D0C3
:10C34C00019BB3F82031BDF83620934228BF134629
:10C35C00ADF83630019BB3F85831002B09D0019B56
:10C36C00B3F82231BDF83620934228BF1346ADF8FE
:10C37C003630019BB3F85631002B09D0019BB3F832
:10C38C002431BDF83620934228BF1346ADF8363021
:10C39C0027210198FFF7D3FE0346002B06D1142169
:10C3AC000198FFF7CCFE0346002B06D0BDF83630C3
:10C3BC00052B28BF0523ADF836301F210198FFF758
:10C3CC00BEFE0346002B06D10B210198FFF7B7FEEA
:10C3DC000346002B06D0BDF83630052B28BF0523AD
:10C3EC00ADF83630BDF8363018460FB030BD00BF52
:10C3FC005871050030B58BB001902E4B02AC1D4628
:10C40C000FCD0FC495E80F0007C4238002AB0F2299
:10C41C0019460198FFF7ACFE0346ADF82630102103
:10C42C000198FFF78CFE0346002B1BD02B210198A3
:10C43C00FFF785FE0346002B0DD0019BB3F84C2271
:10C44C00019BB3F84A32934228BF13469AB2019B20
:10C45C00A3F8082113E0019BB3F84A22019BA3F82F
:10C46C0008210CE02B210198FFF769FE0346002BF5
:10C47C0005D0019BB3F84C22019BA3F808211F2186
:10C48C000198FFF75CFE0346002B06D10B210198A7
:10C49C00FFF755FE0346002B06D0BDF82630052BC2
:10C4AC0028BF0523ADF82630BDF8263018460BB052
:10C4BC0030BD00BF8471050030B589B001901F4BB1
:10C4CC0002AC1D460FCD0FC42B68236002AB0A22B1
:10C4DC0019460198FFF74CFE0346ADF81E30272194
:10C4EC000198FFF72CFE0346002B06D1142101986E
:10C4FC00FFF725FE0346002B06D0BDF81E300F2B90
:10C50C0028BF0F23ADF81E301F210198FFF717FE2F
:10C51C000346002B06D10B210198FFF710FE0346B2
:10C52C00002B06D0BDF81E301C2B28BF1C23ADF8E9
:10C53C001E30BDF81E30184609B030BDA471050080
:10C54C0000B585B0019000230293019BBC334A22B5
:10C55C000021184629F0F6FB002303932BE0039BE4
:10C56C000D2B0BD0039B0C2B08D0039B1F2B05D042
:10C57C00039B202B02D0039B0E2B07D1019A039B0C
:10C58C0080335B0013441222DA8011E0039B0F2BE3
:10C59C0007D1019A039B80335B0013441222DA808B
:10C5AC0006E0019A039B80335B001344C822DA80B7
:10C5BC00039B01330393039B242BD0D900230393B8
:10C5CC0057E0039B0E2B08D0039B022B05D0039B3B
:10C5DC00222B02D0039B182B0ED1019B039A5A32AB
:10C5EC000E2123F82210019A039B9B0013444FF455
:10C5FC007A72A3F86A2139E0039B0F2B1AD0039BA4
:10C60C00232B17D0039B092B14D0039B1D2B11D06C
:10C61C00039B0A2B0ED0039B1E2B0BD0039B0B2BC7
:10C62C0008D0039B1F2B05D0039B032B02D0039B2D
:10C63C00192B0DD1019B039A5A32052123F8221094
:10C64C00019A039B9B0013441422A3F86A210DE06A
:10C65C00019B039A5A32052123F82210019A039B5D
:10C66C009B0013444FF47A72A3F86A21039B0133A5
:10C67C000393039B322BA4D9019B0022A3F83622EF
:10C68C00019B0022A3F83822019B002283F83A2256
:10C69C00019B002283F83B22019B012283F83C2260
:10C6AC00019B0022A3F83E22019B0022A3F840220A
:10C6BC00019B0022A3F85621019B0022A3F84222E1
:10C6CC00019BC822A3F84622019BC822A3F848224A
:10C6DC00019BC822A3F84A22019BC822A3F84C2232
:10C6EC00029B184605B05DF804FB000000B59DB038
:10C6FC00019000231B930023ADF86230424B1B6862
:10C70C001693424A13AB07CA03C31A80404B1B68EB
:10C71C001293404A0FAB07CA03C31A803E4A0CABB4
:10C72C0007CA03C31A803D4B1B680B933C4A08ABEA
:10C73C0007CA83E807003B4A06AB92E8030083E88C
:10C74C000300394B1B680593384B1B6804932E4B25
:10C75C001B6803930198FFF7A7FD0346ADF86A30F9
:10C76C000198FFF747FE0346ADF868300198FFF7D4
:10C77C00A3FE0346ADF8663016AB022219460198AB
:10C78C00FFF7F6FC0346ADF86430BDF86A20BDF83F
:10C79C006830934228BF1346ADF86030BDF8662070
:10C7AC00BDF86030934228BF1346ADF86030BDF839
:10C7BC006420BDF86030934228BF1346ADF860305A
:10C7CC00BDF860304FF6FF72934231D0BDF8603047
:10C7DC00012B0BD1019B5B7E012B35D1019B0122DF
:10C7EC0083F84422019801F0C6FE2DE0019B93F8DA
:10C7FC004432002B28D0019B002283F8442201985C
:10C80C0001F0A4FE20E000BFB8710500BC7105006A
:10C81C00C8710500CC710500D8710500E4710500E4
:10C82C00E8710500F4710500FC710500007205004B
:10C83C00019B93F84432002B06D0019B002283F815
:10C84C004422019801F082FEBDF86A304FF6FF7267
:10C85C00934203D0BDF86030ADF86A30BDF8683053
:10C86C004FF6FF72934203D0BDF86030ADF86830DC
:10C87C00BDF866304FF6FF72934203D0BDF86030BE
:10C88C00ADF86630BDF864304FF6FF72934203D0BA
:10C89C00BDF86030ADF86430019BB3F84232002B28
:10C8AC0035D0BDF86A30122B28BF1223ADF85E309C
:10C8BC00BDF85E30184600F0C9F903461A464FF42D
:10C8CC007A7393FBF2F3ADF85E30BDF85E30184628
:10C8DC0000F0BCF903461946019804F003FCBDF8BE
:10C8EC005E30ADF86A30BDF86A301846FFF7BEFC12
:10C8FC000346ADF86230BDF86220BDF85E100D2322
:10C90C000198FFF769FC02461B9B13431B93019B89
:10C91C00B3F85631002B35D0BDF86A30122B28BF36
:10C92C001223ADF85C30BDF85C30184600F08EF97F
:10C93C0003461A464FF47A7393FBF2F3ADF85C306E
:10C94C00BDF85C30184600F081F903461946019891
:10C95C0004F017FCBDF85C30ADF86A30BDF86A30F5
:10C96C001846FFF783FC0346ADF86230BDF8622031
:10C97C00BDF85C100F230198FFF72EFC02461B9BA1
:10C98C0013431B93BDF86A304FF6FF7293426AD083
:10C99C00BDF86A301846FFF769FC0346ADF8623003
:10C9AC00019BB3F83632BDF862209A4225D0BDF80F
:10C9BC0062301946019801F03DFA02461B9B134365
:10C9CC001B93BDF862301946019801F085FA0246B6
:10C9DC001B9B13431B93BDF86230013B9BB21BB2F4
:10C9EC001946019801F092FF02461B9B13431B93BF
:10C9FC00019BBDF86220A3F8362213AB0522194621
:10CA0C000198FFF7B5FB03461946BDF862200023D9
:10CA1C000198FFF7E1FB02461B9B13431B9312ABE0
:10CA2C00022219460198FFF7A3FB03461946BDF8ED
:10CA3C00622007230198FFF7CFFB02461B9B134391
:10CA4C001B930FAB052219460198FFF791FB034688
:10CA5C001946BDF862200C230198FFF7BDFB024676
:10CA6C001B9B13431B93BDF868304FF6FF72934228
:10CA7C0068D0BDF868301846FFF7F8FB0346ADF8F0
:10CA8C006230019BB3F83832BDF862209A4211D063
:10CA9C00BDF86230DBB2013BDBB21946019801F004
:10CAAC00F5FE02461B9B13431B93019BBDF86220B2
:10CABC00A3F838220CAB052219460198FFF758FB56
:10CACC0003461946BDF8622001230198FFF784FB49
