:100000000000042071030000590300005B0300009E
:100010005D0300005F0300006103000000000000BA
:10002000000000000000000000000000630300006A
:100030006503000000000000670300006903000082
:100040006B0300006B0300006B0300006B030000F8
:100050006B0300006B0300006B0300006B030000E8
:100060006B0300006B0300006B0300006B030000D8
:100070006B0300006B0300006B0300006B030000C8
:100080006B0300006B0300006B0300006B030000B8
:100090006B0300006B0300006B0300006B030000A8
:1000A0006B0300006B0300006B0300006B03000098
:1000B0006B0300006B030000000000000000000064
:1000C0006B0300006B0300006B0300006B03000078
:1000D0006B0300006B0300006B0300006B03000068
:1000E0006B0300006B0300006B03000000000000C6
:1000F000000000006B030000000000006B03000024
:1001000000000000000000000000000000000000EF
:1001100000000000000000000000000000000000DF
:1001200000000000000000000000000000000000CF
:1001300000000000000000000000000000000000BF
:1001400000000000000000000000000000000000AF
:10015000000000000000000000000000000000009F
:10016000000000000000000000000000000000008F
:10017000000000000000000000000000000000007F
:10018000000000000000000000000000000000006F
:10019000000000000000000000000000000000005F
:1001A000000000000000000000000000000000004F
:1001B000000000000000000000000000000000003F
:1001C000000000000000000000000000000000002F
:1001D000000000000000000000000000000000001F
:1001E000000000000000000000000000000000000F
:1001F00000000000000000000000000000000000FF
:10020000344935480A1A02D0072291438D463349B2
:1002100033480A1A06D00722914381F30988022243
:1002200082F314882F483049304A00F041F83048B2
:100230003049314A00F03CF830483149314A00F049
:1002400037F831483149324A00F032F83148324902
:10025000324A00F02DF832483249334A00F028F88B
:1002600032483349334A00F023F8334833490022F7
:1002700000F029F832483349002200F024F83248CF
:100280003249091A00F02CFD314A90471F48204995
:10029000884205D00268043003B4904703BCF7E7F6
:1002A00000208646EC46002000212A4A9047FEE7BF
:1002B000884207D0521A05D0037801300B70013103
:1002C000013AF9D17047884202D002700130FAE752
:1002D000704700000000042000E00320000004201C
:1002E00000000420380D0000000000200400002061
:1002F000CC030000CC030000F40C0000380D00001B
:100300000000002000000020F40C0000F40C0000AD
:10031000F40C0000F40C0000F40C0000F40C0000DD
:10032000F40C0000F40C0000360D00003C0D000041
:100330000400002004000020040000202800002009
:10034000280000202800002028000020282000206D
:1003500099030000D7060000FEE7FEE7FEE7FEE790
:10036000FEE7FEE7FEE7FEE7FEE7FEE700F002B885
:10037000FFF7FCBF0F484FF00701884385460E4842
:1003800080470E48016841F470010160BFF34F8F50
:10039000BFF36F8FFFF734BF09480A490A4A884202
:1003A00007D0521A05D0037801300B700131013AA1
:1003B000F9D1704700000420B90A000088ED00E080
:0C03C000F40C00000000002000000020F1
:1003CC0086B003900291019201238DF817309DF8AD
:1003DC001730204A039B13601E4A029B53601D4A30
:1003EC00019B9360039B44F20102934212D0039B46
:1003FC0044F20202934220D1019B164AD360154B62
:10040C00DB681B68134A9361124BDB685B68114A0B
:10041C00D36112E0019B0F4A13610E4B1B699B6861
:10042C000C4A53610B4B1B691B680A4A9361094BBD
:10043C001B695B68074AD36100BF72B600BF00BF7F
:10044C009DF81730DBB2002BFAD162B600BF00BFAB
:10045C0006B070470400002000B587B003900291ED
:10046C00019272B600BF039B44F20102934207D083
:10047C00039B44F20202934205D1019B059303E0D6
:10048C00019B049300E000BF074B1B6803F00103C2
:10049C00002B00D000BE019A02990398FFF790FF41
:1004AC0000BF07B05DF804FBF0ED00E000B585B0CF
:1004BC0003460091ADF80630BDF806300293009B60
:1004CC00039302AB1A46002144F20200FFF7C4FF6B
:1004DC0000BF05B05DF804FB00B585B00190019B31
:1004EC00002B0AD0074B43F001030393019B9B01A4
:1004FC000293039B0298984700E000BF05B05DF89B
:10050C0004FB00BF300D000000B583B00190019BCF
:10051C001B68184600F09CF80346002B04D10B49CD
:10052C004FF4F670FFF7C2FF019B1B681F2B02D81C
:10053C004FF0A04306E0019B1B6803F01F02019BD8
:10054C001A60034B184603B05DF804FBF40C000072
:10055C000003005000B585B00190084611461A46BC
:10056C0003468DF803300B468DF8023013468DF898
:10057C00013001AB1846FFF7C7FF03909DF803202D
:10058C009DF802305B001A439DF801309B001A4322
:10059C009DF818301B0242EA03019DF81C301B0425
:1005AC00019A1943039B02F5E07243F8221000BF35
:1005BC0005B05DF804FB00B585B0039000230193F2
:1005CC00002300930023012201210398FFF7C2FFAF
:1005DC0000BF05B05DF804FB00B585B0019001AB20
:1005EC001846FFF791FF0390019B012202FA03F3D7
:1005FC001946039800F018F800BF05B05DF804FB2D
:10060C0000B585B0019001AB1846FFF77DFF039054
:10061C00019B012202FA03F31946039800F00EF82D
:10062C0000BF05B05DF804FB82B001900091019B06
:10063C00009AC3F8082500BF02B0704782B0019041
:10064C000091019B009AC3F80C2500BF02B07047C3
:10065C0084B00190019B5B09029300230393029BDE
:10066C00002B03D0029B012B04D007E04FF0FF338B
:10067C00039303E04FF6FF73039300BF019B03F05A
:10068C001F030193039A019B22FA03F303F0010366
:10069C00002B14BF01230023DBB2184604B07047B3
:1006AC0000B583B00190019B002B0AD04FF47A70F7
:1006BC00FFF712FF019B013B0193019B002BF5D12E
:1006CC0000E000BF03B05DF804FB08B51B20FFF78A
:1006DC0072FF1B20FFF780FF1B20FFF791FF4FF4E9
:1006EC00FA70FFF7DDFF1B20FFF776FF4FF4FA706F
:1006FC00FFF7D6FFF0E70000BFF34F8F00BF064BAC
:10070C00DB6803F4E0620449044B1343CB60BFF392
:10071C004F8F00BF00BFFDE700ED00E00400FA05BD
:10072C0082B0164B1B680193154B1B680093019B01
:10073C00082B1FD1009B052B1AD801A252F823F0CD
:10074C0065070000690700006D07000071070000D5
:10075C00750700007907000001230CE001230AE073
:10076C00012308E0012306E0012304E0012302E059
:10077C00012300E00023184602B07047300100103E
:10078C003401001082B0164B1B680193154B1B688B
:10079C000093019B082B1FD1009B052B1AD801A29B
:1007AC0052F823F0C9070000CD070000D107000064
:1007BC00D5070000D9070000DD07000001230CE07D
:1007CC0001230AE0012308E0012306E0012304E0F1
:1007DC00012302E0012300E00023184602B0704719
:1007EC00300100103401001082B0164B1B680193CD
:1007FC00154B1B680093019B082B1FD1009B052BED
:10080C001AD801A252F823F02D080000310800007C
:10081C0035080000390800003D08000041080000C0
:10082C0001230CE000230AE0002308E0002306E08B
:10083C00002304E0002302E0002300E0002318461C
:10084C0002B07047300100103401001082B0164B1A
:10085C001B680193154B1B680093019B082B1FD140
:10086C00009B052B1AD801A252F823F09108000026
:10087C0095080000990800009D080000A1080000E0
:10088C00A508000001230CE000230AE0002308E087
:10089C00002306E0002304E0002302E0002300E034
:1008AC000023184602B070473001001034010010CC
:1008BC0082B0164B1B680193154B1B680093019B70
:1008CC00082B1FD1009B052B1AD801A252F823F03C
:1008DC00F5080000F9080000FD08000001090000FF
:1008EC00050900000909000001230CE000230AE0BF
:1008FC00002308E0002306E0002304E0002302E0CC
:10090C00002300E00023184602B0704730010010AD
:10091C003401001082B0164B1B680193154B1B68F9
:10092C000093019B082B1FD1009B052B1AD801A209
:10093C0052F823F0590900005D090000610900001C
:10094C0065090000690900006D09000001230CE035
:10095C0000230AE0002308E0002306E0002304E063
:10096C00002302E0002300E00023184602B0704789
:10097C00300100103401001082B0164B1B6801933B
:10098C00154B1B680093019B082B1FD1009B052B5B
:10099C001AD801A252F823F0BD090000C1090000C9
:1009AC00C5090000C9090000CD090000D1090000EB
:1009BC0001230CE001230AE0012308E0012306E0F7
:1009CC00012304E0012302E0012300E00023184688
:1009DC0002B07047300100103401001082B0164B89
:1009EC001B680193154B1B680093019B082B1FD1AF
:1009FC00009B052B1AD801A252F823F0210A000003
:100A0C00250A0000290A00002D0A0000310A000006
:100A1C00350A000000230CE000230AE0002308E064
:100A2C00002306E0012304E0012302E0012300E09F
:100A3C000023184602B0704730010010340100103A
:100A4C0008B5FFF7CBFF0346002B07D04FF0102360
:100A5C004FF08042D3F80832C2F8583500BF08BDB9
:100A6C0000BF044BD3F80034002BFAD000BF00BFFA
:100A7C00704700BF00E0014000B583B00190054A0B
:100A8C00019BC2F80435FFF7EBFF00BF03B05DF824
:100A9C0004FB00BF00E00140024B034A1A6000BF98
:100AAC00704700BF000000200090D00308B5FFF78E
:100ABC0037FE0346002B0ED04FF080430022C3F8C4
:100ACC000C214FF080430022C3F810214FF08043DB
:100ADC000022C3F83825FFF755FE0346002B76D0CD
:100AEC004FF08053734AD3F80434C2F820354FF0DA
:100AFC008053704AD3F80834C2F824354FF0805331
:100B0C006C4AD3F80C34C2F828354FF08053694A3C
:100B1C00D3F81034C2F82C354FF08053654AD3F813
:100B2C001434C2F830354FF08053624AD3F818347D
:100B3C00C2F834354FF080535E4AD3F81C34C2F8F7
:100B4C0040354FF080535B4AD3F82034C2F844351B
:100B5C004FF08053574AD3F82434C2F848354FF03D
:100B6C008053544AD3F82834C2F84C354FF0805394
:100B7C00504AD3F82C34C2F850354FF080534D4ABC
:100B8C00D3F83034C2F854354FF08053494AD3F877
:100B9C003434C2F860354FF08053464AD3F83834B9
:100BAC00C2F864354FF08053424AD3F83C34C2F853
:100BBC0068354FF080533F4AD3F84034C2F86C3557
:100BCC004FF080533B4AD3F84434C2F87035FFF7EA
:100BDC000BFE0346002B02D0374B384A1A60FFF746
:100BEC0035FE0346002B03D0354BFB22C3F81825EA
:100BFC00FFF75EFE0346002B0AD0324B1B6823F036
:100C0C000F02314B1B6803F00F032E4913430B608B
:100C1C00FFF780FE0346002B03D02C4B4FF40072E1
:100C2C001A60FFF7A9FE0346002B0DD04FF080434E
:100C3C00D3F8003403F00103002B05D04FF08043B0
:100C4C006FF00102C3F80024214BD3F88830204AFE
:100C5C0043F47003C2F88830BFF34F8F00BFBFF36B
:100C6C006F8F00BFFFF7ECFE4FF01023D3F800326C
:100C7C00002B05DB4FF01023D3F80432002B15DAD0
:100C8C000120FFF7F9FE4FF010231222C3F80022C7
:100C9C00FFF7E6FE4FF010231222C3F80422FFF7F1
:100CAC00DFFE0020FFF7E8FEFFF726FDFFF7F4FE5E
:100CBC0000BF08BD00C000408C56004048810300B6
:100CCC0000F00040E40E0040580200104096024034
:100CDC0000ED00E0072904D90023024AC0E90031E5
:080CEC00106070472400002095
:100CF4002E2E2F2E2E2F2E2E2F2E2E2F2E2E2F2E0B
:100D04002E2F6D6F64756C65732F6E7266782F6805
:100D1400616C2F6E72665F6770696F2E68000000E9
:100D24000000000000000000000000000338FDD8AF
:020D3400704706
:040D38000090D00354
:040000030000037185
:00000001FF
